{"contracts/USDTBridgeWithDEX.sol":{"USDTBridgeWithDEX":{"abi":[{"inputs":[{"internalType":"address","name":"_endpoint","type":"address"},{"internalType":"address","name":"_usdt","type":"address"},{"internalType":"address","name":"_swapRouter","type":"address"},{"internalType":"address","name":"_weth","type":"address"},{"internalType":"address","name":"_owner","type":"address"}],"stateMutability":"nonpayable","type":"constructor"},{"inputs":[],"name":"InvalidDelegate","type":"error"},{"inputs":[],"name":"InvalidEndpointCall","type":"error"},{"inputs":[],"name":"LzTokenUnavailable","type":"error"},{"inputs":[{"internalType":"uint32","name":"eid","type":"uint32"}],"name":"NoPeer","type":"error"},{"inputs":[{"internalType":"uint256","name":"msgValue","type":"uint256"}],"name":"NotEnoughNative","type":"error"},{"inputs":[{"internalType":"address","name":"addr","type":"address"}],"name":"OnlyEndpoint","type":"error"},{"inputs":[{"internalType":"uint32","name":"eid","type":"uint32"},{"internalType":"bytes32","name":"sender","type":"bytes32"}],"name":"OnlyPeer","type":"error"},{"anonymous":false,"inputs":[{"indexed":true,"internalType":"address","name":"recipient","type":"address"},{"indexed":true,"internalType":"uint32","name":"srcEid","type":"uint32"},{"indexed":false,"internalType":"uint256","name":"usdtReceived","type":"uint256"},{"indexed":false,"internalType":"bytes32","name":"guid","type":"bytes32"}],"name":"BridgeCompleted","type":"event"},{"anonymous":false,"inputs":[{"indexed":true,"internalType":"address","name":"sender","type":"address"},{"indexed":true,"internalType":"uint32","name":"dstEid","type":"uint32"},{"indexed":true,"internalType":"address","name":"recipient","type":"address"},{"indexed":false,"internalType":"uint256","name":"amount","type":"uint256"},{"indexed":false,"internalType":"bytes32","name":"guid","type":"bytes32"}],"name":"BridgeInitiated","type":"event"},{"anonymous":false,"inputs":[{"indexed":true,"internalType":"address","name":"depositor","type":"address"},{"indexed":false,"internalType":"uint256","name":"amount","type":"uint256"}],"name":"ETHDeposited","type":"event"},{"anonymous":false,"inputs":[{"indexed":true,"internalType":"address","name":"recipient","type":"address"},{"indexed":false,"internalType":"uint256","name":"amount","type":"uint256"}],"name":"ETHWithdrawn","type":"event"},{"anonymous":false,"inputs":[{"indexed":true,"internalType":"address","name":"previousOwner","type":"address"},{"indexed":true,"internalType":"address","name":"newOwner","type":"address"}],"name":"OwnershipTransferred","type":"event"},{"anonymous":false,"inputs":[{"indexed":false,"internalType":"uint32","name":"eid","type":"uint32"},{"indexed":false,"internalType":"bytes32","name":"peer","type":"bytes32"}],"name":"PeerSet","type":"event"},{"inputs":[],"name":"BPS","outputs":[{"internalType":"uint256","name":"","type":"uint256"}],"stateMutability":"view","type":"function"},{"inputs":[],"name":"FEE_BPS","outputs":[{"internalType":"uint256","name":"","type":"uint256"}],"stateMutability":"view","type":"function"},{"inputs":[{"components":[{"internalType":"uint32","name":"srcEid","type":"uint32"},{"internalType":"bytes32","name":"sender","type":"bytes32"},{"internalType":"uint64","name":"nonce","type":"uint64"}],"internalType":"struct Origin","name":"origin","type":"tuple"}],"name":"allowInitializePath","outputs":[{"internalType":"bool","name":"","type":"bool"}],"stateMutability":"view","type":"function"},{"inputs":[{"internalType":"uint32","name":"_dstEid","type":"uint32"},{"internalType":"address","name":"_recipient","type":"address"},{"internalType":"uint256","name":"_amount","type":"uint256"},{"internalType":"bytes","name":"_extraOptions","type":"bytes"}],"name":"bridge","outputs":[{"components":[{"internalType":"bytes32","name":"guid","type":"bytes32"},{"internalType":"uint64","name":"nonce","type":"uint64"},{"components":[{"internalType":"uint256","name":"nativeFee","type":"uint256"},{"internalType":"uint256","name":"lzTokenFee","type":"uint256"}],"internalType":"struct MessagingFee","name":"fee","type":"tuple"}],"internalType":"struct MessagingReceipt","name":"","type":"tuple"}],"stateMutability":"payable","type":"function"},{"inputs":[],"name":"collectedFees","outputs":[{"internalType":"uint256","name":"","type":"uint256"}],"stateMutability":"view","type":"function"},{"inputs":[],"name":"depositETH","outputs":[],"stateMutability":"payable","type":"function"},{"inputs":[],"name":"endpoint","outputs":[{"internalType":"contract ILayerZeroEndpointV2","name":"","type":"address"}],"stateMutability":"view","type":"function"},{"inputs":[{"internalType":"address","name":"","type":"address"}],"name":"ethDeposits","outputs":[{"internalType":"uint256","name":"","type":"uint256"}],"stateMutability":"view","type":"function"},{"inputs":[{"components":[{"internalType":"uint32","name":"srcEid","type":"uint32"},{"internalType":"bytes32","name":"sender","type":"bytes32"},{"internalType":"uint64","name":"nonce","type":"uint64"}],"internalType":"struct Origin","name":"","type":"tuple"},{"internalType":"bytes","name":"","type":"bytes"},{"internalType":"address","name":"_sender","type":"address"}],"name":"isComposeMsgSender","outputs":[{"internalType":"bool","name":"","type":"bool"}],"stateMutability":"view","type":"function"},{"inputs":[{"components":[{"internalType":"uint32","name":"srcEid","type":"uint32"},{"internalType":"bytes32","name":"sender","type":"bytes32"},{"internalType":"uint64","name":"nonce","type":"uint64"}],"internalType":"struct Origin","name":"_origin","type":"tuple"},{"internalType":"bytes32","name":"_guid","type":"bytes32"},{"internalType":"bytes","name":"_message","type":"bytes"},{"internalType":"address","name":"_executor","type":"address"},{"internalType":"bytes","name":"_extraData","type":"bytes"}],"name":"lzReceive","outputs":[],"stateMutability":"payable","type":"function"},{"inputs":[{"internalType":"uint32","name":"","type":"uint32"},{"internalType":"bytes32","name":"","type":"bytes32"}],"name":"nextNonce","outputs":[{"internalType":"uint64","name":"nonce","type":"uint64"}],"stateMutability":"view","type":"function"},{"inputs":[],"name":"oAppVersion","outputs":[{"internalType":"uint64","name":"senderVersion","type":"uint64"},{"internalType":"uint64","name":"receiverVersion","type":"uint64"}],"stateMutability":"pure","type":"function"},{"inputs":[],"name":"owner","outputs":[{"internalType":"address","name":"","type":"address"}],"stateMutability":"view","type":"function"},{"inputs":[{"internalType":"uint32","name":"eid","type":"uint32"}],"name":"peers","outputs":[{"internalType":"bytes32","name":"peer","type":"bytes32"}],"stateMutability":"view","type":"function"},{"inputs":[{"internalType":"uint32","name":"_dstEid","type":"uint32"},{"internalType":"uint256","name":"_amount","type":"uint256"}],"name":"quoteBridgeFee","outputs":[{"internalType":"uint256","name":"totalFee","type":"uint256"}],"stateMutability":"view","type":"function"},{"inputs":[],"name":"renounceOwnership","outputs":[],"stateMutability":"nonpayable","type":"function"},{"inputs":[{"internalType":"address","name":"_delegate","type":"address"}],"name":"setDelegate","outputs":[],"stateMutability":"nonpayable","type":"function"},{"inputs":[{"internalType":"uint32","name":"_eid","type":"uint32"},{"internalType":"bytes32","name":"_peer","type":"bytes32"}],"name":"setPeer","outputs":[],"stateMutability":"nonpayable","type":"function"},{"inputs":[],"name":"swapRouter","outputs":[{"internalType":"contract ISwapRouter","name":"","type":"address"}],"stateMutability":"view","type":"function"},{"inputs":[{"internalType":"address","name":"newOwner","type":"address"}],"name":"transferOwnership","outputs":[],"stateMutability":"nonpayable","type":"function"},{"inputs":[],"name":"usdt","outputs":[{"internalType":"contract IERC20","name":"","type":"address"}],"stateMutability":"view","type":"function"},{"inputs":[],"name":"weth","outputs":[{"internalType":"address","name":"","type":"address"}],"stateMutability":"view","type":"function"},{"inputs":[{"internalType":"uint256","name":"amount","type":"uint256"}],"name":"withdrawETH","outputs":[],"stateMutability":"nonpayable","type":"function"},{"inputs":[],"name":"withdrawFees","outputs":[],"stateMutability":"nonpayable","type":"function"},{"stateMutability":"payable","type":"receive"}],"evm":{"bytecode":{"linkReferences":{},"object":"6101006040523480156200001257600080fd5b5060405162001d5d38038062001d5d833981016040819052620000359162000167565b848181816200004433620000fa565b6001600160a01b0380831660805281166200007257604051632d618d8160e21b815260040160405180910390fd5b60805160405163ca5eb5e160e01b81526001600160a01b0383811660048301529091169063ca5eb5e190602401600060405180830381600087803b158015620000ba57600080fd5b505af1158015620000cf573d6000803e3d6000fd5b5050506001600160a01b0398891660a0525050505092841660c0525090911660e05250620001d79050565b600080546001600160a01b038381166001600160a01b0319831681178455604051919092169283917f8be0079c531659141344cd1fd0a4f28419497f9722a3daafe3b4186f6b6457e09190a35050565b80516001600160a01b03811681146200016257600080fd5b919050565b600080600080600060a086880312156200018057600080fd5b6200018b866200014a565b94506200019b602087016200014a565b9350620001ab604087016200014a565b9250620001bb606087016200014a565b9150620001cb608087016200014a565b90509295509295909350565b60805160a05160c05160e051611aff6200025e60003960008181610259015261107e015260008181610443015261119c0152600081816101cd015281816106680152818161074801526110ad0152600081816102a2015281816104ef015281816108ab01528181610cfa01528181610f1d0152818161130f01526113c80152611aff6000f3fe60806040526004361061014f5760003560e01c80638da5cb5b116100b6578063c31c9c071161006f578063c31c9c0714610431578063ca5eb5e114610465578063f14210a614610485578063f2fde38b146104a5578063f6326fb3146104c5578063ff7bd03d146104cd57600080fd5b80638da5cb5b146103425780639003adfe14610360578063b0ffb11b14610376578063b9d1ed4a146103c2578063bb0b6a53146103ef578063bf333f2c1461041c57600080fd5b80633fc8cef3116101085780633fc8cef314610247578063476343ee1461027b5780635e280f1114610290578063715018a6146102c45780637d25a05e146102d957806382413eac1461031257600080fd5b806313137d651461015b57806317442b7014610170578063249d39e9146101975780632f48ab7d146101bb5780633400288b146102075780633d48ab151461022757600080fd5b3661015657005b600080fd5b61016e6101693660046115be565b6104ed565b005b34801561017c57600080fd5b50604080516001815260026020820152015b60405180910390f35b3480156101a357600080fd5b506101ad61271081565b60405190815260200161018e565b3480156101c757600080fd5b506101ef7f000000000000000000000000000000000000000000000000000000000000000081565b6040516001600160a01b03909116815260200161018e565b34801561021357600080fd5b5061016e610222366004611677565b6105ad565b34801561023357600080fd5b506101ad610242366004611677565b6105c3565b34801561025357600080fd5b506101ef7f000000000000000000000000000000000000000000000000000000000000000081565b34801561028757600080fd5b5061016e610638565b34801561029c57600080fd5b506101ef7f000000000000000000000000000000000000000000000000000000000000000081565b3480156102d057600080fd5b5061016e610692565b3480156102e557600080fd5b506102f96102f4366004611677565b6106a6565b60405167ffffffffffffffff909116815260200161018e565b34801561031e57600080fd5b5061033261032d3660046116a1565b6106af565b604051901515815260200161018e565b34801561034e57600080fd5b506000546001600160a01b03166101ef565b34801561036c57600080fd5b506101ad60025481565b610389610384366004611708565b6106c4565b604080518251815260208084015167ffffffffffffffff168183015292820151805192820192909252910151606082015260800161018e565b3480156103ce57600080fd5b506101ad6103dd366004611779565b60036020526000908152604090205481565b3480156103fb57600080fd5b506101ad61040a36600461179d565b60016020526000908152604090205481565b34801561042857600080fd5b506101ad601e81565b34801561043d57600080fd5b506101ef7f000000000000000000000000000000000000000000000000000000000000000081565b34801561047157600080fd5b5061016e610480366004611779565b610884565b34801561049157600080fd5b5061016e6104a03660046117b8565b61090a565b3480156104b157600080fd5b5061016e6104c0366004611779565b6109ea565b61016e610a60565b3480156104d957600080fd5b506103326104e83660046117d1565b610afe565b7f00000000000000000000000000000000000000000000000000000000000000006001600160a01b0316331461053d576040516391ac5e4f60e01b81523360048201526024015b60405180910390fd5b6020870180359061055790610552908a61179d565b610b34565b1461059557610569602088018861179d565b60405163309afaf360e21b815263ffffffff909116600482015260208801356024820152604401610534565b6105a487878787878787610b70565b50505050505050565b6105b5610bfc565b6105bf8282610c56565b5050565b604080513360208201528082018390528151808203830181526060909101909152600090816105fc85836105f5610cab565b6000610ce4565b9050600061060985610dc5565b9050606461061882606e611803565b610622919061181a565b825161062e919061183c565b9695505050505050565b610640610bfc565b60028054600090915561068f61065e6000546001600160a01b031690565b6001600160a01b037f0000000000000000000000000000000000000000000000000000000000000000169083610df4565b50565b61069a610bfc565b6106a46000610e5c565b565b60005b92915050565b6001600160a01b03811630145b949350505050565b6106cc611500565b600084116107115760405162461bcd60e51b81526020600482015260126024820152710416d6f756e74206d757374206265203e20360741b6044820152606401610534565b6000612710610721601e87611803565b61072b919061181a565b90506000610739828761184f565b90506107706001600160a01b037f000000000000000000000000000000000000000000000000000000000000000016333089610eac565b8160026000828254610782919061183c565b9091555050604080516001600160a01b038916602082015280820183905281518082038301815260609091019091526000856107c5576107c0610cab565b6107fc565b86868080601f0160208091040260200160405190810160405280939291908181526020018383808284376000920191909152505050505b905060006108228b84846040518060400160405280348152602001600081525033610eea565b80516040805187815260208101929092529192506001600160a01b038c169163ffffffff8e169133917fa5c6d033ac99145f1cc051448eeca6f45c8cb5557aa3ee2234233de0f84b0797910160405180910390a49a9950505050505050505050565b61088c610bfc565b60405163ca5eb5e160e01b81526001600160a01b0382811660048301527f0000000000000000000000000000000000000000000000000000000000000000169063ca5eb5e190602401600060405180830381600087803b1580156108ef57600080fd5b505af1158015610903573d6000803e3d6000fd5b5050505050565b336000908152600360205260409020548111156109605760405162461bcd60e51b8152602060048201526014602482015273496e73756666696369656e742062616c616e636560601b6044820152606401610534565b336000908152600360205260408120805483929061097f90849061184f565b9091555050604051339082156108fc029083906000818181858888f193505050501580156109b1573d6000803e3d6000fd5b5060405181815233907f94b2de810873337ed265c5f8cf98c9cffefa06b8607f9a2f1fbaebdfbcfbef1c9060200160405180910390a250565b6109f2610bfc565b6001600160a01b038116610a575760405162461bcd60e51b815260206004820152602660248201527f4f776e61626c653a206e6577206f776e657220697320746865207a65726f206160448201526564647265737360d01b6064820152608401610534565b61068f81610e5c565b60003411610aa35760405162461bcd60e51b815260206004820152601060248201526f09aeae6e840c8cae0dee6d2e8408aa8960831b6044820152606401610534565b3360009081526003602052604081208054349290610ac290849061183c565b909155505060405134815233907f6c703791f399558807424f489ccd811c72b4ff0b74af547264fad7c646776df09060200160405180910390a2565b6000602082018035906001908390610b16908661179d565b63ffffffff1681526020810191909152604001600020541492915050565b63ffffffff8116600090815260016020526040812054806106a95760405163f6ff4fb760e01b815263ffffffff84166004820152602401610534565b600080610b7f86880188611862565b915091506000610b8f8284610ff5565b9050610b9e60208b018b61179d565b63ffffffff16836001600160a01b03167fe0a3a79c4dd6dfc904a83da7f8cce2da4000d87eeda6effd556cf5a47fd8d75e838c604051610be8929190918252602082015260400190565b60405180910390a350505050505050505050565b6000546001600160a01b031633146106a45760405162461bcd60e51b815260206004820181905260248201527f4f776e61626c653a2063616c6c6572206973206e6f7420746865206f776e65726044820152606401610534565b63ffffffff8216600081815260016020908152604091829020849055815192835282018390527f238399d427b947898edb290f5ff0f9109849b1c3ba196a42e35f00c50a54b98b910160405180910390a15050565b604051600360f01b6020820152613d0960851b602282015260006032820152606090604201604051602081830303815290604052905090565b60408051808201909152600080825260208201527f00000000000000000000000000000000000000000000000000000000000000006001600160a01b031663ddc28c586040518060a001604052808863ffffffff168152602001610d4789610b34565b8152602001878152602001868152602001851515815250306040518363ffffffff1660e01b8152600401610d7c9291906118d0565b6040805180830381865afa158015610d98573d6000803e3d6000fd5b505050506040513d601f19601f82011682018060405250810190610dbc91906119a6565b95945050505050565b6000620f4240610bb8610de084670de0b6b3a7640000611803565b610dea919061181a565b6106a9919061181a565b6040516001600160a01b038316602482015260448101829052610e5790849063a9059cbb60e01b906064015b60408051601f198184030181529190526020810180516001600160e01b03166001600160e01b03199093169290921790915261120e565b505050565b600080546001600160a01b038381166001600160a01b0319831681178455604051919092169283917f8be0079c531659141344cd1fd0a4f28419497f9722a3daafe3b4186f6b6457e09190a35050565b6040516001600160a01b0380851660248301528316604482015260648101829052610ee49085906323b872dd60e01b90608401610e20565b50505050565b610ef2611500565b6000610f0184600001516112e3565b602085015190915015610f1b57610f1b846020015161130b565b7f00000000000000000000000000000000000000000000000000000000000000006001600160a01b0316632637a450826040518060a001604052808b63ffffffff168152602001610f6b8c610b34565b81526020018a815260200189815260200160008960200151111515815250866040518463ffffffff1660e01b8152600401610fa79291906118d0565b60806040518083038185885af1158015610fc5573d6000803e3d6000fd5b50505050506040513d601f19601f82011682018060405250810190610fea91906119c2565b979650505050505050565b60008061100184610dc5565b905060006064611012836069611803565b61101c919061181a565b90508047101561106e5760405162461bcd60e51b815260206004820152601960248201527f496e73756666696369656e742045544820666f722073776170000000000000006044820152606401610534565b60006040518061010001604052807f00000000000000000000000000000000000000000000000000000000000000006001600160a01b031681526020017f00000000000000000000000000000000000000000000000000000000000000006001600160a01b03168152602001610bb862ffffff168152602001866001600160a01b03168152602001428152602001838152602001606488605f6111119190611803565b61111b919061181a565b8152600060209182018190526040805163414bf38960e01b815284516001600160a01b03908116600483015293850151841660248201529084015162ffffff1660448201526060840151831660648201526080840151608482015260a084015160a482015260c084015160c482015260e0840151831660e4820152929350917f00000000000000000000000000000000000000000000000000000000000000009091169063414bf3899085906101040160206040518083038185885af11580156111e9573d6000803e3d6000fd5b50505050506040513d601f19601f82011682018060405250810190610fea9190611a42565b6000611263826040518060400160405280602081526020017f5361666545524332303a206c6f772d6c6576656c2063616c6c206661696c6564815250856001600160a01b03166113ed9092919063ffffffff16565b90508051600014806112845750808060200190518101906112849190611a5b565b610e575760405162461bcd60e51b815260206004820152602a60248201527f5361666545524332303a204552433230206f7065726174696f6e20646964206e6044820152691bdd081cdd58d8d9595960b21b6064820152608401610534565b6000813414611307576040516304fb820960e51b8152346004820152602401610534565b5090565b60007f00000000000000000000000000000000000000000000000000000000000000006001600160a01b031663e4fe1d946040518163ffffffff1660e01b8152600401602060405180830381865afa15801561136b573d6000803e3d6000fd5b505050506040513d601f19601f8201168201806040525081019061138f9190611a7d565b90506001600160a01b0381166113b8576040516329b99a9560e11b815260040160405180910390fd5b6105bf6001600160a01b038216337f000000000000000000000000000000000000000000000000000000000000000085610eac565b60606106bc848460008585600080866001600160a01b031685876040516114149190611a9a565b60006040518083038185875af1925050503d8060008114611451576040519150601f19603f3d011682016040523d82523d6000602084013e611456565b606091505b5091509150610fea87838387606083156114d15782516000036114ca576001600160a01b0385163b6114ca5760405162461bcd60e51b815260206004820152601d60248201527f416464726573733a2063616c6c20746f206e6f6e2d636f6e74726163740000006044820152606401610534565b50816106bc565b6106bc83838151156114e65781518083602001fd5b8060405162461bcd60e51b81526004016105349190611ab6565b604051806060016040528060008019168152602001600067ffffffffffffffff168152602001611543604051806040016040528060008152602001600081525090565b905290565b60006060828403121561155a57600080fd5b50919050565b60008083601f84011261157257600080fd5b50813567ffffffffffffffff81111561158a57600080fd5b6020830191508360208285010111156115a257600080fd5b9250929050565b6001600160a01b038116811461068f57600080fd5b600080600080600080600060e0888a0312156115d957600080fd5b6115e38989611548565b965060608801359550608088013567ffffffffffffffff8082111561160757600080fd5b6116138b838c01611560565b909750955060a08a01359150611628826115a9565b90935060c0890135908082111561163e57600080fd5b5061164b8a828b01611560565b989b979a50959850939692959293505050565b803563ffffffff8116811461167257600080fd5b919050565b6000806040838503121561168a57600080fd5b6116938361165e565b946020939093013593505050565b60008060008060a085870312156116b757600080fd5b6116c18686611548565b9350606085013567ffffffffffffffff8111156116dd57600080fd5b6116e987828801611560565b90945092505060808501356116fd816115a9565b939692955090935050565b60008060008060006080868803121561172057600080fd5b6117298661165e565b94506020860135611739816115a9565b935060408601359250606086013567ffffffffffffffff81111561175c57600080fd5b61176888828901611560565b969995985093965092949392505050565b60006020828403121561178b57600080fd5b8135611796816115a9565b9392505050565b6000602082840312156117af57600080fd5b6117968261165e565b6000602082840312156117ca57600080fd5b5035919050565b6000606082840312156117e357600080fd5b6117968383611548565b634e487b7160e01b600052601160045260246000fd5b80820281158282048414176106a9576106a96117ed565b60008261183757634e487b7160e01b600052601260045260246000fd5b500490565b808201808211156106a9576106a96117ed565b818103818111156106a9576106a96117ed565b6000806040838503121561187557600080fd5b8235611693816115a9565b60005b8381101561189b578181015183820152602001611883565b50506000910152565b600081518084526118bc816020860160208601611880565b601f01601f19169290920160200192915050565b6040815263ffffffff8351166040820152602083015160608201526000604084015160a0608084015261190660e08401826118a4565b90506060850151603f198483030160a085015261192382826118a4565b60809690960151151560c08501525050506001600160a01b039190911660209091015290565b60006040828403121561195b57600080fd5b6040516040810181811067ffffffffffffffff8211171561198c57634e487b7160e01b600052604160045260246000fd5b604052825181526020928301519281019290925250919050565b6000604082840312156119b857600080fd5b6117968383611949565b6000608082840312156119d457600080fd5b6040516060810167ffffffffffffffff8282108183111715611a0657634e487b7160e01b600052604160045260246000fd5b8160405284518352602085015191508082168214611a2357600080fd5b506020820152611a368460408501611949565b60408201529392505050565b600060208284031215611a5457600080fd5b5051919050565b600060208284031215611a6d57600080fd5b8151801515811461179657600080fd5b600060208284031215611a8f57600080fd5b8151611796816115a9565b60008251611aac818460208701611880565b9190910192915050565b60208152600061179660208301846118a456fea2646970667358221220f2a2f4186274a375176ef05464af2fee088d232858d40c5d9779fe380230fa3264736f6c63430008160033","opcodes":"PUSH2 0x100 PUSH1 0x40 MSTORE CALLVALUE DUP1 ISZERO PUSH3 0x12 JUMPI PUSH1 0x0 DUP1 REVERT JUMPDEST POP PUSH1 0x40 MLOAD PUSH3 0x1D5D CODESIZE SUB DUP1 PUSH3 0x1D5D DUP4 CODECOPY DUP2 ADD PUSH1 0x40 DUP2 SWAP1 MSTORE PUSH3 0x35 SWAP2 PUSH3 0x167 JUMP JUMPDEST DUP5 DUP2 DUP2 DUP2 PUSH3 0x44 CALLER PUSH3 0xFA JUMP JUMPDEST PUSH1 0x1 PUSH1 0x1 PUSH1 0xA0 SHL SUB DUP1 DUP4 AND PUSH1 0x80 MSTORE DUP2 AND PUSH3 0x72 JUMPI PUSH1 0x40 MLOAD PUSH4 0x2D618D81 PUSH1 0xE2 SHL DUP2 MSTORE PUSH1 0x4 ADD PUSH1 0x40 MLOAD DUP1 SWAP2 SUB SWAP1 REVERT JUMPDEST PUSH1 0x80 MLOAD PUSH1 0x40 MLOAD PUSH4 0xCA5EB5E1 PUSH1 0xE0 SHL DUP2 MSTORE PUSH1 0x1 PUSH1 0x1 PUSH1 0xA0 SHL SUB DUP4 DUP2 AND PUSH1 0x4 DUP4 ADD MSTORE SWAP1 SWAP2 AND SWAP1 PUSH4 0xCA5EB5E1 SWAP1 PUSH1 0x24 ADD PUSH1 0x0 PUSH1 0x40 MLOAD DUP1 DUP4 SUB DUP2 PUSH1 0x0 DUP8 DUP1 EXTCODESIZE ISZERO DUP1 ISZERO PUSH3 0xBA JUMPI PUSH1 0x0 DUP1 REVERT JUMPDEST POP GAS CALL ISZERO DUP1 ISZERO PUSH3 0xCF JUMPI RETURNDATASIZE PUSH1 0x0 DUP1 RETURNDATACOPY RETURNDATASIZE PUSH1 0x0 REVERT JUMPDEST POP POP POP PUSH1 0x1 PUSH1 0x1 PUSH1 0xA0 SHL SUB SWAP9 DUP10 AND PUSH1 0xA0 MSTORE POP POP POP POP SWAP3 DUP5 AND PUSH1 0xC0 MSTORE POP SWAP1 SWAP2 AND PUSH1 0xE0 MSTORE POP PUSH3 0x1D7 SWAP1 POP JUMP JUMPDEST PUSH1 0x0 DUP1 SLOAD PUSH1 0x1 PUSH1 0x1 PUSH1 0xA0 SHL SUB DUP4 DUP2 AND PUSH1 0x1 PUSH1 0x1 PUSH1 0xA0 SHL SUB NOT DUP4 AND DUP2 OR DUP5 SSTORE PUSH1 0x40 MLOAD SWAP2 SWAP1 SWAP3 AND SWAP3 DUP4 SWAP2 PUSH32 0x8BE0079C531659141344CD1FD0A4F28419497F9722A3DAAFE3B4186F6B6457E0 SWAP2 SWAP1 LOG3 POP POP JUMP JUMPDEST DUP1 MLOAD PUSH1 0x1 PUSH1 0x1 PUSH1 0xA0 SHL SUB DUP2 AND DUP2 EQ PUSH3 0x162 JUMPI PUSH1 0x0 DUP1 REVERT JUMPDEST SWAP2 SWAP1 POP JUMP JUMPDEST PUSH1 0x0 DUP1 PUSH1 0x0 DUP1 PUSH1 0x0 PUSH1 0xA0 DUP7 DUP9 SUB SLT ISZERO PUSH3 0x180 JUMPI PUSH1 0x0 DUP1 REVERT JUMPDEST PUSH3 0x18B DUP7 PUSH3 0x14A JUMP JUMPDEST SWAP5 POP PUSH3 0x19B PUSH1 0x20 DUP8 ADD PUSH3 0x14A JUMP JUMPDEST SWAP4 POP PUSH3 0x1AB PUSH1 0x40 DUP8 ADD PUSH3 0x14A JUMP JUMPDEST SWAP3 POP PUSH3 0x1BB PUSH1 0x60 DUP8 ADD PUSH3 0x14A JUMP JUMPDEST SWAP2 POP PUSH3 0x1CB PUSH1 0x80 DUP8 ADD PUSH3 0x14A JUMP JUMPDEST SWAP1 POP SWAP3 SWAP6 POP SWAP3 SWAP6 SWAP1 SWAP4 POP JUMP JUMPDEST PUSH1 0x80 MLOAD PUSH1 0xA0 MLOAD PUSH1 0xC0 MLOAD PUSH1 0xE0 MLOAD PUSH2 0x1AFF PUSH3 0x25E PUSH1 0x0 CODECOPY PUSH1 0x0 DUP2 DUP2 PUSH2 0x259 ADD MSTORE PUSH2 0x107E ADD MSTORE PUSH1 0x0 DUP2 DUP2 PUSH2 0x443 ADD MSTORE PUSH2 0x119C ADD MSTORE PUSH1 0x0 DUP2 DUP2 PUSH2 0x1CD ADD MSTORE DUP2 DUP2 PUSH2 0x668 ADD MSTORE DUP2 DUP2 PUSH2 0x748 ADD MSTORE PUSH2 0x10AD ADD MSTORE PUSH1 0x0 DUP2 DUP2 PUSH2 0x2A2 ADD MSTORE DUP2 DUP2 PUSH2 0x4EF ADD MSTORE DUP2 DUP2 PUSH2 0x8AB ADD MSTORE DUP2 DUP2 PUSH2 0xCFA ADD MSTORE DUP2 DUP2 PUSH2 0xF1D ADD MSTORE DUP2 DUP2 PUSH2 0x130F ADD MSTORE PUSH2 0x13C8 ADD MSTORE PUSH2 0x1AFF PUSH1 0x0 RETURN INVALID PUSH1 0x80 PUSH1 0x40 MSTORE PUSH1 0x4 CALLDATASIZE LT PUSH2 0x14F JUMPI PUSH1 0x0 CALLDATALOAD PUSH1 0xE0 SHR DUP1 PUSH4 0x8DA5CB5B GT PUSH2 0xB6 JUMPI DUP1 PUSH4 0xC31C9C07 GT PUSH2 0x6F JUMPI DUP1 PUSH4 0xC31C9C07 EQ PUSH2 0x431 JUMPI DUP1 PUSH4 0xCA5EB5E1 EQ PUSH2 0x465 JUMPI DUP1 PUSH4 0xF14210A6 EQ PUSH2 0x485 JUMPI DUP1 PUSH4 0xF2FDE38B EQ PUSH2 0x4A5 JUMPI DUP1 PUSH4 0xF6326FB3 EQ PUSH2 0x4C5 JUMPI DUP1 PUSH4 0xFF7BD03D EQ PUSH2 0x4CD JUMPI PUSH1 0x0 DUP1 REVERT JUMPDEST DUP1 PUSH4 0x8DA5CB5B EQ PUSH2 0x342 JUMPI DUP1 PUSH4 0x9003ADFE EQ PUSH2 0x360 JUMPI DUP1 PUSH4 0xB0FFB11B EQ PUSH2 0x376 JUMPI DUP1 PUSH4 0xB9D1ED4A EQ PUSH2 0x3C2 JUMPI DUP1 PUSH4 0xBB0B6A53 EQ PUSH2 0x3EF JUMPI DUP1 PUSH4 0xBF333F2C EQ PUSH2 0x41C JUMPI PUSH1 0x0 DUP1 REVERT JUMPDEST DUP1 PUSH4 0x3FC8CEF3 GT PUSH2 0x108 JUMPI DUP1 PUSH4 0x3FC8CEF3 EQ PUSH2 0x247 JUMPI DUP1 PUSH4 0x476343EE EQ PUSH2 0x27B JUMPI DUP1 PUSH4 0x5E280F11 EQ PUSH2 0x290 JUMPI DUP1 PUSH4 0x715018A6 EQ PUSH2 0x2C4 JUMPI DUP1 PUSH4 0x7D25A05E EQ PUSH2 0x2D9 JUMPI DUP1 PUSH4 0x82413EAC EQ PUSH2 0x312 JUMPI PUSH1 0x0 DUP1 REVERT JUMPDEST DUP1 PUSH4 0x13137D65 EQ PUSH2 0x15B JUMPI DUP1 PUSH4 0x17442B70 EQ PUSH2 0x170 JUMPI DUP1 PUSH4 0x249D39E9 EQ PUSH2 0x197 JUMPI DUP1 PUSH4 0x2F48AB7D EQ PUSH2 0x1BB JUMPI DUP1 PUSH4 0x3400288B EQ PUSH2 0x207 JUMPI DUP1 PUSH4 0x3D48AB15 EQ PUSH2 0x227 JUMPI PUSH1 0x0 DUP1 REVERT JUMPDEST CALLDATASIZE PUSH2 0x156 JUMPI STOP JUMPDEST PUSH1 0x0 DUP1 REVERT JUMPDEST PUSH2 0x16E PUSH2 0x169 CALLDATASIZE PUSH1 0x4 PUSH2 0x15BE JUMP JUMPDEST PUSH2 0x4ED JUMP JUMPDEST STOP JUMPDEST CALLVALUE DUP1 ISZERO PUSH2 0x17C JUMPI PUSH1 0x0 DUP1 REVERT JUMPDEST POP PUSH1 0x40 DUP1 MLOAD PUSH1 0x1 DUP2 MSTORE PUSH1 0x2 PUSH1 0x20 DUP3 ADD MSTORE ADD JUMPDEST PUSH1 0x40 MLOAD DUP1 SWAP2 SUB SWAP1 RETURN JUMPDEST CALLVALUE DUP1 ISZERO PUSH2 0x1A3 JUMPI PUSH1 0x0 DUP1 REVERT JUMPDEST POP PUSH2 0x1AD PUSH2 0x2710 DUP2 JUMP JUMPDEST PUSH1 0x40 MLOAD SWAP1 DUP2 MSTORE PUSH1 0x20 ADD PUSH2 0x18E JUMP JUMPDEST CALLVALUE DUP1 ISZERO PUSH2 0x1C7 JUMPI PUSH1 0x0 DUP1 REVERT JUMPDEST POP PUSH2 0x1EF PUSH32 0x0 DUP2 JUMP JUMPDEST PUSH1 0x40 MLOAD PUSH1 0x1 PUSH1 0x1 PUSH1 0xA0 SHL SUB SWAP1 SWAP2 AND DUP2 MSTORE PUSH1 0x20 ADD PUSH2 0x18E JUMP JUMPDEST CALLVALUE DUP1 ISZERO PUSH2 0x213 JUMPI PUSH1 0x0 DUP1 REVERT JUMPDEST POP PUSH2 0x16E PUSH2 0x222 CALLDATASIZE PUSH1 0x4 PUSH2 0x1677 JUMP JUMPDEST PUSH2 0x5AD JUMP JUMPDEST CALLVALUE DUP1 ISZERO PUSH2 0x233 JUMPI PUSH1 0x0 DUP1 REVERT JUMPDEST POP PUSH2 0x1AD PUSH2 0x242 CALLDATASIZE PUSH1 0x4 PUSH2 0x1677 JUMP JUMPDEST PUSH2 0x5C3 JUMP JUMPDEST CALLVALUE DUP1 ISZERO PUSH2 0x253 JUMPI PUSH1 0x0 DUP1 REVERT JUMPDEST POP PUSH2 0x1EF PUSH32 0x0 DUP2 JUMP JUMPDEST CALLVALUE DUP1 ISZERO PUSH2 0x287 JUMPI PUSH1 0x0 DUP1 REVERT JUMPDEST POP PUSH2 0x16E PUSH2 0x638 JUMP JUMPDEST CALLVALUE DUP1 ISZERO PUSH2 0x29C JUMPI PUSH1 0x0 DUP1 REVERT JUMPDEST POP PUSH2 0x1EF PUSH32 0x0 DUP2 JUMP JUMPDEST CALLVALUE DUP1 ISZERO PUSH2 0x2D0 JUMPI PUSH1 0x0 DUP1 REVERT JUMPDEST POP PUSH2 0x16E PUSH2 0x692 JUMP JUMPDEST CALLVALUE DUP1 ISZERO PUSH2 0x2E5 JUMPI PUSH1 0x0 DUP1 REVERT JUMPDEST POP PUSH2 0x2F9 PUSH2 0x2F4 CALLDATASIZE PUSH1 0x4 PUSH2 0x1677 JUMP JUMPDEST PUSH2 0x6A6 JUMP JUMPDEST PUSH1 0x40 MLOAD PUSH8 0xFFFFFFFFFFFFFFFF SWAP1 SWAP2 AND DUP2 MSTORE PUSH1 0x20 ADD PUSH2 0x18E JUMP JUMPDEST CALLVALUE DUP1 ISZERO PUSH2 0x31E JUMPI PUSH1 0x0 DUP1 REVERT JUMPDEST POP PUSH2 0x332 PUSH2 0x32D CALLDATASIZE PUSH1 0x4 PUSH2 0x16A1 JUMP JUMPDEST PUSH2 0x6AF JUMP JUMPDEST PUSH1 0x40 MLOAD SWAP1 ISZERO ISZERO DUP2 MSTORE PUSH1 0x20 ADD PUSH2 0x18E JUMP JUMPDEST CALLVALUE DUP1 ISZERO PUSH2 0x34E JUMPI PUSH1 0x0 DUP1 REVERT JUMPDEST POP PUSH1 0x0 SLOAD PUSH1 0x1 PUSH1 0x1 PUSH1 0xA0 SHL SUB AND PUSH2 0x1EF JUMP JUMPDEST CALLVALUE DUP1 ISZERO PUSH2 0x36C JUMPI PUSH1 0x0 DUP1 REVERT JUMPDEST POP PUSH2 0x1AD PUSH1 0x2 SLOAD DUP2 JUMP JUMPDEST PUSH2 0x389 PUSH2 0x384 CALLDATASIZE PUSH1 0x4 PUSH2 0x1708 JUMP JUMPDEST PUSH2 0x6C4 JUMP JUMPDEST PUSH1 0x40 DUP1 MLOAD DUP3 MLOAD DUP2 MSTORE PUSH1 0x20 DUP1 DUP5 ADD MLOAD PUSH8 0xFFFFFFFFFFFFFFFF AND DUP2 DUP4 ADD MSTORE SWAP3 DUP3 ADD MLOAD DUP1 MLOAD SWAP3 DUP3 ADD SWAP3 SWAP1 SWAP3 MSTORE SWAP2 ADD MLOAD PUSH1 0x60 DUP3 ADD MSTORE PUSH1 0x80 ADD PUSH2 0x18E JUMP JUMPDEST CALLVALUE DUP1 ISZERO PUSH2 0x3CE JUMPI PUSH1 0x0 DUP1 REVERT JUMPDEST POP PUSH2 0x1AD PUSH2 0x3DD CALLDATASIZE PUSH1 0x4 PUSH2 0x1779 JUMP JUMPDEST PUSH1 0x3 PUSH1 0x20 MSTORE PUSH1 0x0 SWAP1 DUP2 MSTORE PUSH1 0x40 SWAP1 KECCAK256 SLOAD DUP2 JUMP JUMPDEST CALLVALUE DUP1 ISZERO PUSH2 0x3FB JUMPI PUSH1 0x0 DUP1 REVERT JUMPDEST POP PUSH2 0x1AD PUSH2 0x40A CALLDATASIZE PUSH1 0x4 PUSH2 0x179D JUMP JUMPDEST PUSH1 0x1 PUSH1 0x20 MSTORE PUSH1 0x0 SWAP1 DUP2 MSTORE PUSH1 0x40 SWAP1 KECCAK256 SLOAD DUP2 JUMP JUMPDEST CALLVALUE DUP1 ISZERO PUSH2 0x428 JUMPI PUSH1 0x0 DUP1 REVERT JUMPDEST POP PUSH2 0x1AD PUSH1 0x1E DUP2 JUMP JUMPDEST CALLVALUE DUP1 ISZERO PUSH2 0x43D JUMPI PUSH1 0x0 DUP1 REVERT JUMPDEST POP PUSH2 0x1EF PUSH32 0x0 DUP2 JUMP JUMPDEST CALLVALUE DUP1 ISZERO PUSH2 0x471 JUMPI PUSH1 0x0 DUP1 REVERT JUMPDEST POP PUSH2 0x16E PUSH2 0x480 CALLDATASIZE PUSH1 0x4 PUSH2 0x1779 JUMP JUMPDEST PUSH2 0x884 JUMP JUMPDEST CALLVALUE DUP1 ISZERO PUSH2 0x491 JUMPI PUSH1 0x0 DUP1 REVERT JUMPDEST POP PUSH2 0x16E PUSH2 0x4A0 CALLDATASIZE PUSH1 0x4 PUSH2 0x17B8 JUMP JUMPDEST PUSH2 0x90A JUMP JUMPDEST CALLVALUE DUP1 ISZERO PUSH2 0x4B1 JUMPI PUSH1 0x0 DUP1 REVERT JUMPDEST POP PUSH2 0x16E PUSH2 0x4C0 CALLDATASIZE PUSH1 0x4 PUSH2 0x1779 JUMP JUMPDEST PUSH2 0x9EA JUMP JUMPDEST PUSH2 0x16E PUSH2 0xA60 JUMP JUMPDEST CALLVALUE DUP1 ISZERO PUSH2 0x4D9 JUMPI PUSH1 0x0 DUP1 REVERT JUMPDEST POP PUSH2 0x332 PUSH2 0x4E8 CALLDATASIZE PUSH1 0x4 PUSH2 0x17D1 JUMP JUMPDEST PUSH2 0xAFE JUMP JUMPDEST PUSH32 0x0 PUSH1 0x1 PUSH1 0x1 PUSH1 0xA0 SHL SUB AND CALLER EQ PUSH2 0x53D JUMPI PUSH1 0x40 MLOAD PUSH4 0x91AC5E4F PUSH1 0xE0 SHL DUP2 MSTORE CALLER PUSH1 0x4 DUP3 ADD MSTORE PUSH1 0x24 ADD JUMPDEST PUSH1 0x40 MLOAD DUP1 SWAP2 SUB SWAP1 REVERT JUMPDEST PUSH1 0x20 DUP8 ADD DUP1 CALLDATALOAD SWAP1 PUSH2 0x557 SWAP1 PUSH2 0x552 SWAP1 DUP11 PUSH2 0x179D JUMP JUMPDEST PUSH2 0xB34 JUMP JUMPDEST EQ PUSH2 0x595 JUMPI PUSH2 0x569 PUSH1 0x20 DUP9 ADD DUP9 PUSH2 0x179D JUMP JUMPDEST PUSH1 0x40 MLOAD PUSH4 0x309AFAF3 PUSH1 0xE2 SHL DUP2 MSTORE PUSH4 0xFFFFFFFF SWAP1 SWAP2 AND PUSH1 0x4 DUP3 ADD MSTORE PUSH1 0x20 DUP9 ADD CALLDATALOAD PUSH1 0x24 DUP3 ADD MSTORE PUSH1 0x44 ADD PUSH2 0x534 JUMP JUMPDEST PUSH2 0x5A4 DUP8 DUP8 DUP8 DUP8 DUP8 DUP8 DUP8 PUSH2 0xB70 JUMP JUMPDEST POP POP POP POP POP POP POP JUMP JUMPDEST PUSH2 0x5B5 PUSH2 0xBFC JUMP JUMPDEST PUSH2 0x5BF DUP3 DUP3 PUSH2 0xC56 JUMP JUMPDEST POP POP JUMP JUMPDEST PUSH1 0x40 DUP1 MLOAD CALLER PUSH1 0x20 DUP3 ADD MSTORE DUP1 DUP3 ADD DUP4 SWAP1 MSTORE DUP2 MLOAD DUP1 DUP3 SUB DUP4 ADD DUP2 MSTORE PUSH1 0x60 SWAP1 SWAP2 ADD SWAP1 SWAP2 MSTORE PUSH1 0x0 SWAP1 DUP2 PUSH2 0x5FC DUP6 DUP4 PUSH2 0x5F5 PUSH2 0xCAB JUMP JUMPDEST PUSH1 0x0 PUSH2 0xCE4 JUMP JUMPDEST SWAP1 POP PUSH1 0x0 PUSH2 0x609 DUP6 PUSH2 0xDC5 JUMP JUMPDEST SWAP1 POP PUSH1 0x64 PUSH2 0x618 DUP3 PUSH1 0x6E PUSH2 0x1803 JUMP JUMPDEST PUSH2 0x622 SWAP2 SWAP1 PUSH2 0x181A JUMP JUMPDEST DUP3 MLOAD PUSH2 0x62E SWAP2 SWAP1 PUSH2 0x183C JUMP JUMPDEST SWAP7 SWAP6 POP POP POP POP POP POP JUMP JUMPDEST PUSH2 0x640 PUSH2 0xBFC JUMP JUMPDEST PUSH1 0x2 DUP1 SLOAD PUSH1 0x0 SWAP1 SWAP2 SSTORE PUSH2 0x68F PUSH2 0x65E PUSH1 0x0 SLOAD PUSH1 0x1 PUSH1 0x1 PUSH1 0xA0 SHL SUB AND SWAP1 JUMP JUMPDEST PUSH1 0x1 PUSH1 0x1 PUSH1 0xA0 SHL SUB PUSH32 0x0 AND SWAP1 DUP4 PUSH2 0xDF4 JUMP JUMPDEST POP JUMP JUMPDEST PUSH2 0x69A PUSH2 0xBFC JUMP JUMPDEST PUSH2 0x6A4 PUSH1 0x0 PUSH2 0xE5C JUMP JUMPDEST JUMP JUMPDEST PUSH1 0x0 JUMPDEST SWAP3 SWAP2 POP POP JUMP JUMPDEST PUSH1 0x1 PUSH1 0x1 PUSH1 0xA0 SHL SUB DUP2 AND ADDRESS EQ JUMPDEST SWAP5 SWAP4 POP POP POP POP JUMP JUMPDEST PUSH2 0x6CC PUSH2 0x1500 JUMP JUMPDEST PUSH1 0x0 DUP5 GT PUSH2 0x711 JUMPI PUSH1 0x40 MLOAD PUSH3 0x461BCD PUSH1 0xE5 SHL DUP2 MSTORE PUSH1 0x20 PUSH1 0x4 DUP3 ADD MSTORE PUSH1 0x12 PUSH1 0x24 DUP3 ADD MSTORE PUSH18 0x416D6F756E74206D757374206265203E203 PUSH1 0x74 SHL PUSH1 0x44 DUP3 ADD MSTORE PUSH1 0x64 ADD PUSH2 0x534 JUMP JUMPDEST PUSH1 0x0 PUSH2 0x2710 PUSH2 0x721 PUSH1 0x1E DUP8 PUSH2 0x1803 JUMP JUMPDEST PUSH2 0x72B SWAP2 SWAP1 PUSH2 0x181A JUMP JUMPDEST SWAP1 POP PUSH1 0x0 PUSH2 0x739 DUP3 DUP8 PUSH2 0x184F JUMP JUMPDEST SWAP1 POP PUSH2 0x770 PUSH1 0x1 PUSH1 0x1 PUSH1 0xA0 SHL SUB PUSH32 0x0 AND CALLER ADDRESS DUP10 PUSH2 0xEAC JUMP JUMPDEST DUP2 PUSH1 0x2 PUSH1 0x0 DUP3 DUP3 SLOAD PUSH2 0x782 SWAP2 SWAP1 PUSH2 0x183C JUMP JUMPDEST SWAP1 SWAP2 SSTORE POP POP PUSH1 0x40 DUP1 MLOAD PUSH1 0x1 PUSH1 0x1 PUSH1 0xA0 SHL SUB DUP10 AND PUSH1 0x20 DUP3 ADD MSTORE DUP1 DUP3 ADD DUP4 SWAP1 MSTORE DUP2 MLOAD DUP1 DUP3 SUB DUP4 ADD DUP2 MSTORE PUSH1 0x60 SWAP1 SWAP2 ADD SWAP1 SWAP2 MSTORE PUSH1 0x0 DUP6 PUSH2 0x7C5 JUMPI PUSH2 0x7C0 PUSH2 0xCAB JUMP JUMPDEST PUSH2 0x7FC JUMP JUMPDEST DUP7 DUP7 DUP1 DUP1 PUSH1 0x1F ADD PUSH1 0x20 DUP1 SWAP2 DIV MUL PUSH1 0x20 ADD PUSH1 0x40 MLOAD SWAP1 DUP2 ADD PUSH1 0x40 MSTORE DUP1 SWAP4 SWAP3 SWAP2 SWAP1 DUP2 DUP2 MSTORE PUSH1 0x20 ADD DUP4 DUP4 DUP1 DUP3 DUP5 CALLDATACOPY PUSH1 0x0 SWAP3 ADD SWAP2 SWAP1 SWAP2 MSTORE POP POP POP POP JUMPDEST SWAP1 POP PUSH1 0x0 PUSH2 0x822 DUP12 DUP5 DUP5 PUSH1 0x40 MLOAD DUP1 PUSH1 0x40 ADD PUSH1 0x40 MSTORE DUP1 CALLVALUE DUP2 MSTORE PUSH1 0x20 ADD PUSH1 0x0 DUP2 MSTORE POP CALLER PUSH2 0xEEA JUMP JUMPDEST DUP1 MLOAD PUSH1 0x40 DUP1 MLOAD DUP8 DUP2 MSTORE PUSH1 0x20 DUP2 ADD SWAP3 SWAP1 SWAP3 MSTORE SWAP2 SWAP3 POP PUSH1 0x1 PUSH1 0x1 PUSH1 0xA0 SHL SUB DUP13 AND SWAP2 PUSH4 0xFFFFFFFF DUP15 AND SWAP2 CALLER SWAP2 PUSH32 0xA5C6D033AC99145F1CC051448EECA6F45C8CB5557AA3EE2234233DE0F84B0797 SWAP2 ADD PUSH1 0x40 MLOAD DUP1 SWAP2 SUB SWAP1 LOG4 SWAP11 SWAP10 POP POP POP POP POP POP POP POP POP POP JUMP JUMPDEST PUSH2 0x88C PUSH2 0xBFC JUMP JUMPDEST PUSH1 0x40 MLOAD PUSH4 0xCA5EB5E1 PUSH1 0xE0 SHL DUP2 MSTORE PUSH1 0x1 PUSH1 0x1 PUSH1 0xA0 SHL SUB DUP3 DUP2 AND PUSH1 0x4 DUP4 ADD MSTORE PUSH32 0x0 AND SWAP1 PUSH4 0xCA5EB5E1 SWAP1 PUSH1 0x24 ADD PUSH1 0x0 PUSH1 0x40 MLOAD DUP1 DUP4 SUB DUP2 PUSH1 0x0 DUP8 DUP1 EXTCODESIZE ISZERO DUP1 ISZERO PUSH2 0x8EF JUMPI PUSH1 0x0 DUP1 REVERT JUMPDEST POP GAS CALL ISZERO DUP1 ISZERO PUSH2 0x903 JUMPI RETURNDATASIZE PUSH1 0x0 DUP1 RETURNDATACOPY RETURNDATASIZE PUSH1 0x0 REVERT JUMPDEST POP POP POP POP POP JUMP JUMPDEST CALLER PUSH1 0x0 SWAP1 DUP2 MSTORE PUSH1 0x3 PUSH1 0x20 MSTORE PUSH1 0x40 SWAP1 KECCAK256 SLOAD DUP2 GT ISZERO PUSH2 0x960 JUMPI PUSH1 0x40 MLOAD PUSH3 0x461BCD PUSH1 0xE5 SHL DUP2 MSTORE PUSH1 0x20 PUSH1 0x4 DUP3 ADD MSTORE PUSH1 0x14 PUSH1 0x24 DUP3 ADD MSTORE PUSH20 0x496E73756666696369656E742062616C616E6365 PUSH1 0x60 SHL PUSH1 0x44 DUP3 ADD MSTORE PUSH1 0x64 ADD PUSH2 0x534 JUMP JUMPDEST CALLER PUSH1 0x0 SWAP1 DUP2 MSTORE PUSH1 0x3 PUSH1 0x20 MSTORE PUSH1 0x40 DUP2 KECCAK256 DUP1 SLOAD DUP4 SWAP3 SWAP1 PUSH2 0x97F SWAP1 DUP5 SWAP1 PUSH2 0x184F JUMP JUMPDEST SWAP1 SWAP2 SSTORE POP POP PUSH1 0x40 MLOAD CALLER SWAP1 DUP3 ISZERO PUSH2 0x8FC MUL SWAP1 DUP4 SWAP1 PUSH1 0x0 DUP2 DUP2 DUP2 DUP6 DUP9 DUP9 CALL SWAP4 POP POP POP POP ISZERO DUP1 ISZERO PUSH2 0x9B1 JUMPI RETURNDATASIZE PUSH1 0x0 DUP1 RETURNDATACOPY RETURNDATASIZE PUSH1 0x0 REVERT JUMPDEST POP PUSH1 0x40 MLOAD DUP2 DUP2 MSTORE CALLER SWAP1 PUSH32 0x94B2DE810873337ED265C5F8CF98C9CFFEFA06B8607F9A2F1FBAEBDFBCFBEF1C SWAP1 PUSH1 0x20 ADD PUSH1 0x40 MLOAD DUP1 SWAP2 SUB SWAP1 LOG2 POP JUMP JUMPDEST PUSH2 0x9F2 PUSH2 0xBFC JUMP JUMPDEST PUSH1 0x1 PUSH1 0x1 PUSH1 0xA0 SHL SUB DUP2 AND PUSH2 0xA57 JUMPI PUSH1 0x40 MLOAD PUSH3 0x461BCD PUSH1 0xE5 SHL DUP2 MSTORE PUSH1 0x20 PUSH1 0x4 DUP3 ADD MSTORE PUSH1 0x26 PUSH1 0x24 DUP3 ADD MSTORE PUSH32 0x4F776E61626C653A206E6577206F776E657220697320746865207A65726F2061 PUSH1 0x44 DUP3 ADD MSTORE PUSH6 0x646472657373 PUSH1 0xD0 SHL PUSH1 0x64 DUP3 ADD MSTORE PUSH1 0x84 ADD PUSH2 0x534 JUMP JUMPDEST PUSH2 0x68F DUP2 PUSH2 0xE5C JUMP JUMPDEST PUSH1 0x0 CALLVALUE GT PUSH2 0xAA3 JUMPI PUSH1 0x40 MLOAD PUSH3 0x461BCD PUSH1 0xE5 SHL DUP2 MSTORE PUSH1 0x20 PUSH1 0x4 DUP3 ADD MSTORE PUSH1 0x10 PUSH1 0x24 DUP3 ADD MSTORE PUSH16 0x9AEAE6E840C8CAE0DEE6D2E8408AA89 PUSH1 0x83 SHL PUSH1 0x44 DUP3 ADD MSTORE PUSH1 0x64 ADD PUSH2 0x534 JUMP JUMPDEST CALLER PUSH1 0x0 SWAP1 DUP2 MSTORE PUSH1 0x3 PUSH1 0x20 MSTORE PUSH1 0x40 DUP2 KECCAK256 DUP1 SLOAD CALLVALUE SWAP3 SWAP1 PUSH2 0xAC2 SWAP1 DUP5 SWAP1 PUSH2 0x183C JUMP JUMPDEST SWAP1 SWAP2 SSTORE POP POP PUSH1 0x40 MLOAD CALLVALUE DUP2 MSTORE CALLER SWAP1 PUSH32 0x6C703791F399558807424F489CCD811C72B4FF0B74AF547264FAD7C646776DF0 SWAP1 PUSH1 0x20 ADD PUSH1 0x40 MLOAD DUP1 SWAP2 SUB SWAP1 LOG2 JUMP JUMPDEST PUSH1 0x0 PUSH1 0x20 DUP3 ADD DUP1 CALLDATALOAD SWAP1 PUSH1 0x1 SWAP1 DUP4 SWAP1 PUSH2 0xB16 SWAP1 DUP7 PUSH2 0x179D JUMP JUMPDEST PUSH4 0xFFFFFFFF AND DUP2 MSTORE PUSH1 0x20 DUP2 ADD SWAP2 SWAP1 SWAP2 MSTORE PUSH1 0x40 ADD PUSH1 0x0 KECCAK256 SLOAD EQ SWAP3 SWAP2 POP POP JUMP JUMPDEST PUSH4 0xFFFFFFFF DUP2 AND PUSH1 0x0 SWAP1 DUP2 MSTORE PUSH1 0x1 PUSH1 0x20 MSTORE PUSH1 0x40 DUP2 KECCAK256 SLOAD DUP1 PUSH2 0x6A9 JUMPI PUSH1 0x40 MLOAD PUSH4 0xF6FF4FB7 PUSH1 0xE0 SHL DUP2 MSTORE PUSH4 0xFFFFFFFF DUP5 AND PUSH1 0x4 DUP3 ADD MSTORE PUSH1 0x24 ADD PUSH2 0x534 JUMP JUMPDEST PUSH1 0x0 DUP1 PUSH2 0xB7F DUP7 DUP9 ADD DUP9 PUSH2 0x1862 JUMP JUMPDEST SWAP2 POP SWAP2 POP PUSH1 0x0 PUSH2 0xB8F DUP3 DUP5 PUSH2 0xFF5 JUMP JUMPDEST SWAP1 POP PUSH2 0xB9E PUSH1 0x20 DUP12 ADD DUP12 PUSH2 0x179D JUMP JUMPDEST PUSH4 0xFFFFFFFF AND DUP4 PUSH1 0x1 PUSH1 0x1 PUSH1 0xA0 SHL SUB AND PUSH32 0xE0A3A79C4DD6DFC904A83DA7F8CCE2DA4000D87EEDA6EFFD556CF5A47FD8D75E DUP4 DUP13 PUSH1 0x40 MLOAD PUSH2 0xBE8 SWAP3 SWAP2 SWAP1 SWAP2 DUP3 MSTORE PUSH1 0x20 DUP3 ADD MSTORE PUSH1 0x40 ADD SWAP1 JUMP JUMPDEST PUSH1 0x40 MLOAD DUP1 SWAP2 SUB SWAP1 LOG3 POP POP POP POP POP POP POP POP POP POP JUMP JUMPDEST PUSH1 0x0 SLOAD PUSH1 0x1 PUSH1 0x1 PUSH1 0xA0 SHL SUB AND CALLER EQ PUSH2 0x6A4 JUMPI PUSH1 0x40 MLOAD PUSH3 0x461BCD PUSH1 0xE5 SHL DUP2 MSTORE PUSH1 0x20 PUSH1 0x4 DUP3 ADD DUP2 SWAP1 MSTORE PUSH1 0x24 DUP3 ADD MSTORE PUSH32 0x4F776E61626C653A2063616C6C6572206973206E6F7420746865206F776E6572 PUSH1 0x44 DUP3 ADD MSTORE PUSH1 0x64 ADD PUSH2 0x534 JUMP JUMPDEST PUSH4 0xFFFFFFFF DUP3 AND PUSH1 0x0 DUP2 DUP2 MSTORE PUSH1 0x1 PUSH1 0x20 SWAP1 DUP2 MSTORE PUSH1 0x40 SWAP2 DUP3 SWAP1 KECCAK256 DUP5 SWAP1 SSTORE DUP2 MLOAD SWAP3 DUP4 MSTORE DUP3 ADD DUP4 SWAP1 MSTORE PUSH32 0x238399D427B947898EDB290F5FF0F9109849B1C3BA196A42E35F00C50A54B98B SWAP2 ADD PUSH1 0x40 MLOAD DUP1 SWAP2 SUB SWAP1 LOG1 POP POP JUMP JUMPDEST PUSH1 0x40 MLOAD PUSH1 0x3 PUSH1 0xF0 SHL PUSH1 0x20 DUP3 ADD MSTORE PUSH2 0x3D09 PUSH1 0x85 SHL PUSH1 0x22 DUP3 ADD MSTORE PUSH1 0x0 PUSH1 0x32 DUP3 ADD MSTORE PUSH1 0x60 SWAP1 PUSH1 0x42 ADD PUSH1 0x40 MLOAD PUSH1 0x20 DUP2 DUP4 SUB SUB DUP2 MSTORE SWAP1 PUSH1 0x40 MSTORE SWAP1 POP SWAP1 JUMP JUMPDEST PUSH1 0x40 DUP1 MLOAD DUP1 DUP3 ADD SWAP1 SWAP2 MSTORE PUSH1 0x0 DUP1 DUP3 MSTORE PUSH1 0x20 DUP3 ADD MSTORE PUSH32 0x0 PUSH1 0x1 PUSH1 0x1 PUSH1 0xA0 SHL SUB AND PUSH4 0xDDC28C58 PUSH1 0x40 MLOAD DUP1 PUSH1 0xA0 ADD PUSH1 0x40 MSTORE DUP1 DUP9 PUSH4 0xFFFFFFFF AND DUP2 MSTORE PUSH1 0x20 ADD PUSH2 0xD47 DUP10 PUSH2 0xB34 JUMP JUMPDEST DUP2 MSTORE PUSH1 0x20 ADD DUP8 DUP2 MSTORE PUSH1 0x20 ADD DUP7 DUP2 MSTORE PUSH1 0x20 ADD DUP6 ISZERO ISZERO DUP2 MSTORE POP ADDRESS PUSH1 0x40 MLOAD DUP4 PUSH4 0xFFFFFFFF AND PUSH1 0xE0 SHL DUP2 MSTORE PUSH1 0x4 ADD PUSH2 0xD7C SWAP3 SWAP2 SWAP1 PUSH2 0x18D0 JUMP JUMPDEST PUSH1 0x40 DUP1 MLOAD DUP1 DUP4 SUB DUP2 DUP7 GAS STATICCALL ISZERO DUP1 ISZERO PUSH2 0xD98 JUMPI RETURNDATASIZE PUSH1 0x0 DUP1 RETURNDATACOPY RETURNDATASIZE PUSH1 0x0 REVERT JUMPDEST POP POP POP POP PUSH1 0x40 MLOAD RETURNDATASIZE PUSH1 0x1F NOT PUSH1 0x1F DUP3 ADD AND DUP3 ADD DUP1 PUSH1 0x40 MSTORE POP DUP2 ADD SWAP1 PUSH2 0xDBC SWAP2 SWAP1 PUSH2 0x19A6 JUMP JUMPDEST SWAP6 SWAP5 POP POP POP POP POP JUMP JUMPDEST PUSH1 0x0 PUSH3 0xF4240 PUSH2 0xBB8 PUSH2 0xDE0 DUP5 PUSH8 0xDE0B6B3A7640000 PUSH2 0x1803 JUMP JUMPDEST PUSH2 0xDEA SWAP2 SWAP1 PUSH2 0x181A JUMP JUMPDEST PUSH2 0x6A9 SWAP2 SWAP1 PUSH2 0x181A JUMP JUMPDEST PUSH1 0x40 MLOAD PUSH1 0x1 PUSH1 0x1 PUSH1 0xA0 SHL SUB DUP4 AND PUSH1 0x24 DUP3 ADD MSTORE PUSH1 0x44 DUP2 ADD DUP3 SWAP1 MSTORE PUSH2 0xE57 SWAP1 DUP5 SWAP1 PUSH4 0xA9059CBB PUSH1 0xE0 SHL SWAP1 PUSH1 0x64 ADD JUMPDEST PUSH1 0x40 DUP1 MLOAD PUSH1 0x1F NOT DUP2 DUP5 SUB ADD DUP2 MSTORE SWAP2 SWAP1 MSTORE PUSH1 0x20 DUP2 ADD DUP1 MLOAD PUSH1 0x1 PUSH1 0x1 PUSH1 0xE0 SHL SUB AND PUSH1 0x1 PUSH1 0x1 PUSH1 0xE0 SHL SUB NOT SWAP1 SWAP4 AND SWAP3 SWAP1 SWAP3 OR SWAP1 SWAP2 MSTORE PUSH2 0x120E JUMP JUMPDEST POP POP POP JUMP JUMPDEST PUSH1 0x0 DUP1 SLOAD PUSH1 0x1 PUSH1 0x1 PUSH1 0xA0 SHL SUB DUP4 DUP2 AND PUSH1 0x1 PUSH1 0x1 PUSH1 0xA0 SHL SUB NOT DUP4 AND DUP2 OR DUP5 SSTORE PUSH1 0x40 MLOAD SWAP2 SWAP1 SWAP3 AND SWAP3 DUP4 SWAP2 PUSH32 0x8BE0079C531659141344CD1FD0A4F28419497F9722A3DAAFE3B4186F6B6457E0 SWAP2 SWAP1 LOG3 POP POP JUMP JUMPDEST PUSH1 0x40 MLOAD PUSH1 0x1 PUSH1 0x1 PUSH1 0xA0 SHL SUB DUP1 DUP6 AND PUSH1 0x24 DUP4 ADD MSTORE DUP4 AND PUSH1 0x44 DUP3 ADD MSTORE PUSH1 0x64 DUP2 ADD DUP3 SWAP1 MSTORE PUSH2 0xEE4 SWAP1 DUP6 SWAP1 PUSH4 0x23B872DD PUSH1 0xE0 SHL SWAP1 PUSH1 0x84 ADD PUSH2 0xE20 JUMP JUMPDEST POP POP POP POP JUMP JUMPDEST PUSH2 0xEF2 PUSH2 0x1500 JUMP JUMPDEST PUSH1 0x0 PUSH2 0xF01 DUP5 PUSH1 0x0 ADD MLOAD PUSH2 0x12E3 JUMP JUMPDEST PUSH1 0x20 DUP6 ADD MLOAD SWAP1 SWAP2 POP ISZERO PUSH2 0xF1B JUMPI PUSH2 0xF1B DUP5 PUSH1 0x20 ADD MLOAD PUSH2 0x130B JUMP JUMPDEST PUSH32 0x0 PUSH1 0x1 PUSH1 0x1 PUSH1 0xA0 SHL SUB AND PUSH4 0x2637A450 DUP3 PUSH1 0x40 MLOAD DUP1 PUSH1 0xA0 ADD PUSH1 0x40 MSTORE DUP1 DUP12 PUSH4 0xFFFFFFFF AND DUP2 MSTORE PUSH1 0x20 ADD PUSH2 0xF6B DUP13 PUSH2 0xB34 JUMP JUMPDEST DUP2 MSTORE PUSH1 0x20 ADD DUP11 DUP2 MSTORE PUSH1 0x20 ADD DUP10 DUP2 MSTORE PUSH1 0x20 ADD PUSH1 0x0 DUP10 PUSH1 0x20 ADD MLOAD GT ISZERO ISZERO DUP2 MSTORE POP DUP7 PUSH1 0x40 MLOAD DUP5 PUSH4 0xFFFFFFFF AND PUSH1 0xE0 SHL DUP2 MSTORE PUSH1 0x4 ADD PUSH2 0xFA7 SWAP3 SWAP2 SWAP1 PUSH2 0x18D0 JUMP JUMPDEST PUSH1 0x80 PUSH1 0x40 MLOAD DUP1 DUP4 SUB DUP2 DUP6 DUP9 GAS CALL ISZERO DUP1 ISZERO PUSH2 0xFC5 JUMPI RETURNDATASIZE PUSH1 0x0 DUP1 RETURNDATACOPY RETURNDATASIZE PUSH1 0x0 REVERT JUMPDEST POP POP POP POP POP PUSH1 0x40 MLOAD RETURNDATASIZE PUSH1 0x1F NOT PUSH1 0x1F DUP3 ADD AND DUP3 ADD DUP1 PUSH1 0x40 MSTORE POP DUP2 ADD SWAP1 PUSH2 0xFEA SWAP2 SWAP1 PUSH2 0x19C2 JUMP JUMPDEST SWAP8 SWAP7 POP POP POP POP POP POP POP JUMP JUMPDEST PUSH1 0x0 DUP1 PUSH2 0x1001 DUP5 PUSH2 0xDC5 JUMP JUMPDEST SWAP1 POP PUSH1 0x0 PUSH1 0x64 PUSH2 0x1012 DUP4 PUSH1 0x69 PUSH2 0x1803 JUMP JUMPDEST PUSH2 0x101C SWAP2 SWAP1 PUSH2 0x181A JUMP JUMPDEST SWAP1 POP DUP1 SELFBALANCE LT ISZERO PUSH2 0x106E JUMPI PUSH1 0x40 MLOAD PUSH3 0x461BCD PUSH1 0xE5 SHL DUP2 MSTORE PUSH1 0x20 PUSH1 0x4 DUP3 ADD MSTORE PUSH1 0x19 PUSH1 0x24 DUP3 ADD MSTORE PUSH32 0x496E73756666696369656E742045544820666F72207377617000000000000000 PUSH1 0x44 DUP3 ADD MSTORE PUSH1 0x64 ADD PUSH2 0x534 JUMP JUMPDEST PUSH1 0x0 PUSH1 0x40 MLOAD DUP1 PUSH2 0x100 ADD PUSH1 0x40 MSTORE DUP1 PUSH32 0x0 PUSH1 0x1 PUSH1 0x1 PUSH1 0xA0 SHL SUB AND DUP2 MSTORE PUSH1 0x20 ADD PUSH32 0x0 PUSH1 0x1 PUSH1 0x1 PUSH1 0xA0 SHL SUB AND DUP2 MSTORE PUSH1 0x20 ADD PUSH2 0xBB8 PUSH3 0xFFFFFF AND DUP2 MSTORE PUSH1 0x20 ADD DUP7 PUSH1 0x1 PUSH1 0x1 PUSH1 0xA0 SHL SUB AND DUP2 MSTORE PUSH1 0x20 ADD TIMESTAMP DUP2 MSTORE PUSH1 0x20 ADD DUP4 DUP2 MSTORE PUSH1 0x20 ADD PUSH1 0x64 DUP9 PUSH1 0x5F PUSH2 0x1111 SWAP2 SWAP1 PUSH2 0x1803 JUMP JUMPDEST PUSH2 0x111B SWAP2 SWAP1 PUSH2 0x181A JUMP JUMPDEST DUP2 MSTORE PUSH1 0x0 PUSH1 0x20 SWAP2 DUP3 ADD DUP2 SWAP1 MSTORE PUSH1 0x40 DUP1 MLOAD PUSH4 0x414BF389 PUSH1 0xE0 SHL DUP2 MSTORE DUP5 MLOAD PUSH1 0x1 PUSH1 0x1 PUSH1 0xA0 SHL SUB SWAP1 DUP2 AND PUSH1 0x4 DUP4 ADD MSTORE SWAP4 DUP6 ADD MLOAD DUP5 AND PUSH1 0x24 DUP3 ADD MSTORE SWAP1 DUP5 ADD MLOAD PUSH3 0xFFFFFF AND PUSH1 0x44 DUP3 ADD MSTORE PUSH1 0x60 DUP5 ADD MLOAD DUP4 AND PUSH1 0x64 DUP3 ADD MSTORE PUSH1 0x80 DUP5 ADD MLOAD PUSH1 0x84 DUP3 ADD MSTORE PUSH1 0xA0 DUP5 ADD MLOAD PUSH1 0xA4 DUP3 ADD MSTORE PUSH1 0xC0 DUP5 ADD MLOAD PUSH1 0xC4 DUP3 ADD MSTORE PUSH1 0xE0 DUP5 ADD MLOAD DUP4 AND PUSH1 0xE4 DUP3 ADD MSTORE SWAP3 SWAP4 POP SWAP2 PUSH32 0x0 SWAP1 SWAP2 AND SWAP1 PUSH4 0x414BF389 SWAP1 DUP6 SWAP1 PUSH2 0x104 ADD PUSH1 0x20 PUSH1 0x40 MLOAD DUP1 DUP4 SUB DUP2 DUP6 DUP9 GAS CALL ISZERO DUP1 ISZERO PUSH2 0x11E9 JUMPI RETURNDATASIZE PUSH1 0x0 DUP1 RETURNDATACOPY RETURNDATASIZE PUSH1 0x0 REVERT JUMPDEST POP POP POP POP POP PUSH1 0x40 MLOAD RETURNDATASIZE PUSH1 0x1F NOT PUSH1 0x1F DUP3 ADD AND DUP3 ADD DUP1 PUSH1 0x40 MSTORE POP DUP2 ADD SWAP1 PUSH2 0xFEA SWAP2 SWAP1 PUSH2 0x1A42 JUMP JUMPDEST PUSH1 0x0 PUSH2 0x1263 DUP3 PUSH1 0x40 MLOAD DUP1 PUSH1 0x40 ADD PUSH1 0x40 MSTORE DUP1 PUSH1 0x20 DUP2 MSTORE PUSH1 0x20 ADD PUSH32 0x5361666545524332303A206C6F772D6C6576656C2063616C6C206661696C6564 DUP2 MSTORE POP DUP6 PUSH1 0x1 PUSH1 0x1 PUSH1 0xA0 SHL SUB AND PUSH2 0x13ED SWAP1 SWAP3 SWAP2 SWAP1 PUSH4 0xFFFFFFFF AND JUMP JUMPDEST SWAP1 POP DUP1 MLOAD PUSH1 0x0 EQ DUP1 PUSH2 0x1284 JUMPI POP DUP1 DUP1 PUSH1 0x20 ADD SWAP1 MLOAD DUP2 ADD SWAP1 PUSH2 0x1284 SWAP2 SWAP1 PUSH2 0x1A5B JUMP JUMPDEST PUSH2 0xE57 JUMPI PUSH1 0x40 MLOAD PUSH3 0x461BCD PUSH1 0xE5 SHL DUP2 MSTORE PUSH1 0x20 PUSH1 0x4 DUP3 ADD MSTORE PUSH1 0x2A PUSH1 0x24 DUP3 ADD MSTORE PUSH32 0x5361666545524332303A204552433230206F7065726174696F6E20646964206E PUSH1 0x44 DUP3 ADD MSTORE PUSH10 0x1BDD081CDD58D8D95959 PUSH1 0xB2 SHL PUSH1 0x64 DUP3 ADD MSTORE PUSH1 0x84 ADD PUSH2 0x534 JUMP JUMPDEST PUSH1 0x0 DUP2 CALLVALUE EQ PUSH2 0x1307 JUMPI PUSH1 0x40 MLOAD PUSH4 0x4FB8209 PUSH1 0xE5 SHL DUP2 MSTORE CALLVALUE PUSH1 0x4 DUP3 ADD MSTORE PUSH1 0x24 ADD PUSH2 0x534 JUMP JUMPDEST POP SWAP1 JUMP JUMPDEST PUSH1 0x0 PUSH32 0x0 PUSH1 0x1 PUSH1 0x1 PUSH1 0xA0 SHL SUB AND PUSH4 0xE4FE1D94 PUSH1 0x40 MLOAD DUP2 PUSH4 0xFFFFFFFF AND PUSH1 0xE0 SHL DUP2 MSTORE PUSH1 0x4 ADD PUSH1 0x20 PUSH1 0x40 MLOAD DUP1 DUP4 SUB DUP2 DUP7 GAS STATICCALL ISZERO DUP1 ISZERO PUSH2 0x136B JUMPI RETURNDATASIZE PUSH1 0x0 DUP1 RETURNDATACOPY RETURNDATASIZE PUSH1 0x0 REVERT JUMPDEST POP POP POP POP PUSH1 0x40 MLOAD RETURNDATASIZE PUSH1 0x1F NOT PUSH1 0x1F DUP3 ADD AND DUP3 ADD DUP1 PUSH1 0x40 MSTORE POP DUP2 ADD SWAP1 PUSH2 0x138F SWAP2 SWAP1 PUSH2 0x1A7D JUMP JUMPDEST SWAP1 POP PUSH1 0x1 PUSH1 0x1 PUSH1 0xA0 SHL SUB DUP2 AND PUSH2 0x13B8 JUMPI PUSH1 0x40 MLOAD PUSH4 0x29B99A95 PUSH1 0xE1 SHL DUP2 MSTORE PUSH1 0x4 ADD PUSH1 0x40 MLOAD DUP1 SWAP2 SUB SWAP1 REVERT JUMPDEST PUSH2 0x5BF PUSH1 0x1 PUSH1 0x1 PUSH1 0xA0 SHL SUB DUP3 AND CALLER PUSH32 0x0 DUP6 PUSH2 0xEAC JUMP JUMPDEST PUSH1 0x60 PUSH2 0x6BC DUP5 DUP5 PUSH1 0x0 DUP6 DUP6 PUSH1 0x0 DUP1 DUP7 PUSH1 0x1 PUSH1 0x1 PUSH1 0xA0 SHL SUB AND DUP6 DUP8 PUSH1 0x40 MLOAD PUSH2 0x1414 SWAP2 SWAP1 PUSH2 0x1A9A JUMP JUMPDEST PUSH1 0x0 PUSH1 0x40 MLOAD DUP1 DUP4 SUB DUP2 DUP6 DUP8 GAS CALL SWAP3 POP POP POP RETURNDATASIZE DUP1 PUSH1 0x0 DUP2 EQ PUSH2 0x1451 JUMPI PUSH1 0x40 MLOAD SWAP2 POP PUSH1 0x1F NOT PUSH1 0x3F RETURNDATASIZE ADD AND DUP3 ADD PUSH1 0x40 MSTORE RETURNDATASIZE DUP3 MSTORE RETURNDATASIZE PUSH1 0x0 PUSH1 0x20 DUP5 ADD RETURNDATACOPY PUSH2 0x1456 JUMP JUMPDEST PUSH1 0x60 SWAP2 POP JUMPDEST POP SWAP2 POP SWAP2 POP PUSH2 0xFEA DUP8 DUP4 DUP4 DUP8 PUSH1 0x60 DUP4 ISZERO PUSH2 0x14D1 JUMPI DUP3 MLOAD PUSH1 0x0 SUB PUSH2 0x14CA JUMPI PUSH1 0x1 PUSH1 0x1 PUSH1 0xA0 SHL SUB DUP6 AND EXTCODESIZE PUSH2 0x14CA JUMPI PUSH1 0x40 MLOAD PUSH3 0x461BCD PUSH1 0xE5 SHL DUP2 MSTORE PUSH1 0x20 PUSH1 0x4 DUP3 ADD MSTORE PUSH1 0x1D PUSH1 0x24 DUP3 ADD MSTORE PUSH32 0x416464726573733A2063616C6C20746F206E6F6E2D636F6E7472616374000000 PUSH1 0x44 DUP3 ADD MSTORE PUSH1 0x64 ADD PUSH2 0x534 JUMP JUMPDEST POP DUP2 PUSH2 0x6BC JUMP JUMPDEST PUSH2 0x6BC DUP4 DUP4 DUP2 MLOAD ISZERO PUSH2 0x14E6 JUMPI DUP2 MLOAD DUP1 DUP4 PUSH1 0x20 ADD REVERT JUMPDEST DUP1 PUSH1 0x40 MLOAD PUSH3 0x461BCD PUSH1 0xE5 SHL DUP2 MSTORE PUSH1 0x4 ADD PUSH2 0x534 SWAP2 SWAP1 PUSH2 0x1AB6 JUMP JUMPDEST PUSH1 0x40 MLOAD DUP1 PUSH1 0x60 ADD PUSH1 0x40 MSTORE DUP1 PUSH1 0x0 DUP1 NOT AND DUP2 MSTORE PUSH1 0x20 ADD PUSH1 0x0 PUSH8 0xFFFFFFFFFFFFFFFF AND DUP2 MSTORE PUSH1 0x20 ADD PUSH2 0x1543 PUSH1 0x40 MLOAD DUP1 PUSH1 0x40 ADD PUSH1 0x40 MSTORE DUP1 PUSH1 0x0 DUP2 MSTORE PUSH1 0x20 ADD PUSH1 0x0 DUP2 MSTORE POP SWAP1 JUMP JUMPDEST SWAP1 MSTORE SWAP1 JUMP JUMPDEST PUSH1 0x0 PUSH1 0x60 DUP3 DUP5 SUB SLT ISZERO PUSH2 0x155A JUMPI PUSH1 0x0 DUP1 REVERT JUMPDEST POP SWAP2 SWAP1 POP JUMP JUMPDEST PUSH1 0x0 DUP1 DUP4 PUSH1 0x1F DUP5 ADD SLT PUSH2 0x1572 JUMPI PUSH1 0x0 DUP1 REVERT JUMPDEST POP DUP2 CALLDATALOAD PUSH8 0xFFFFFFFFFFFFFFFF DUP2 GT ISZERO PUSH2 0x158A JUMPI PUSH1 0x0 DUP1 REVERT JUMPDEST PUSH1 0x20 DUP4 ADD SWAP2 POP DUP4 PUSH1 0x20 DUP3 DUP6 ADD ADD GT ISZERO PUSH2 0x15A2 JUMPI PUSH1 0x0 DUP1 REVERT JUMPDEST SWAP3 POP SWAP3 SWAP1 POP JUMP JUMPDEST PUSH1 0x1 PUSH1 0x1 PUSH1 0xA0 SHL SUB DUP2 AND DUP2 EQ PUSH2 0x68F JUMPI PUSH1 0x0 DUP1 REVERT JUMPDEST PUSH1 0x0 DUP1 PUSH1 0x0 DUP1 PUSH1 0x0 DUP1 PUSH1 0x0 PUSH1 0xE0 DUP9 DUP11 SUB SLT ISZERO PUSH2 0x15D9 JUMPI PUSH1 0x0 DUP1 REVERT JUMPDEST PUSH2 0x15E3 DUP10 DUP10 PUSH2 0x1548 JUMP JUMPDEST SWAP7 POP PUSH1 0x60 DUP9 ADD CALLDATALOAD SWAP6 POP PUSH1 0x80 DUP9 ADD CALLDATALOAD PUSH8 0xFFFFFFFFFFFFFFFF DUP1 DUP3 GT ISZERO PUSH2 0x1607 JUMPI PUSH1 0x0 DUP1 REVERT JUMPDEST PUSH2 0x1613 DUP12 DUP4 DUP13 ADD PUSH2 0x1560 JUMP JUMPDEST SWAP1 SWAP8 POP SWAP6 POP PUSH1 0xA0 DUP11 ADD CALLDATALOAD SWAP2 POP PUSH2 0x1628 DUP3 PUSH2 0x15A9 JUMP JUMPDEST SWAP1 SWAP4 POP PUSH1 0xC0 DUP10 ADD CALLDATALOAD SWAP1 DUP1 DUP3 GT ISZERO PUSH2 0x163E JUMPI PUSH1 0x0 DUP1 REVERT JUMPDEST POP PUSH2 0x164B DUP11 DUP3 DUP12 ADD PUSH2 0x1560 JUMP JUMPDEST SWAP9 SWAP12 SWAP8 SWAP11 POP SWAP6 SWAP9 POP SWAP4 SWAP7 SWAP3 SWAP6 SWAP3 SWAP4 POP POP POP JUMP JUMPDEST DUP1 CALLDATALOAD PUSH4 0xFFFFFFFF DUP2 AND DUP2 EQ PUSH2 0x1672 JUMPI PUSH1 0x0 DUP1 REVERT JUMPDEST SWAP2 SWAP1 POP JUMP JUMPDEST PUSH1 0x0 DUP1 PUSH1 0x40 DUP4 DUP6 SUB SLT ISZERO PUSH2 0x168A JUMPI PUSH1 0x0 DUP1 REVERT JUMPDEST PUSH2 0x1693 DUP4 PUSH2 0x165E JUMP JUMPDEST SWAP5 PUSH1 0x20 SWAP4 SWAP1 SWAP4 ADD CALLDATALOAD SWAP4 POP POP POP JUMP JUMPDEST PUSH1 0x0 DUP1 PUSH1 0x0 DUP1 PUSH1 0xA0 DUP6 DUP8 SUB SLT ISZERO PUSH2 0x16B7 JUMPI PUSH1 0x0 DUP1 REVERT JUMPDEST PUSH2 0x16C1 DUP7 DUP7 PUSH2 0x1548 JUMP JUMPDEST SWAP4 POP PUSH1 0x60 DUP6 ADD CALLDATALOAD PUSH8 0xFFFFFFFFFFFFFFFF DUP2 GT ISZERO PUSH2 0x16DD JUMPI PUSH1 0x0 DUP1 REVERT JUMPDEST PUSH2 0x16E9 DUP8 DUP3 DUP9 ADD PUSH2 0x1560 JUMP JUMPDEST SWAP1 SWAP5 POP SWAP3 POP POP PUSH1 0x80 DUP6 ADD CALLDATALOAD PUSH2 0x16FD DUP2 PUSH2 0x15A9 JUMP JUMPDEST SWAP4 SWAP7 SWAP3 SWAP6 POP SWAP1 SWAP4 POP POP JUMP JUMPDEST PUSH1 0x0 DUP1 PUSH1 0x0 DUP1 PUSH1 0x0 PUSH1 0x80 DUP7 DUP9 SUB SLT ISZERO PUSH2 0x1720 JUMPI PUSH1 0x0 DUP1 REVERT JUMPDEST PUSH2 0x1729 DUP7 PUSH2 0x165E JUMP JUMPDEST SWAP5 POP PUSH1 0x20 DUP7 ADD CALLDATALOAD PUSH2 0x1739 DUP2 PUSH2 0x15A9 JUMP JUMPDEST SWAP4 POP PUSH1 0x40 DUP7 ADD CALLDATALOAD SWAP3 POP PUSH1 0x60 DUP7 ADD CALLDATALOAD PUSH8 0xFFFFFFFFFFFFFFFF DUP2 GT ISZERO PUSH2 0x175C JUMPI PUSH1 0x0 DUP1 REVERT JUMPDEST PUSH2 0x1768 DUP9 DUP3 DUP10 ADD PUSH2 0x1560 JUMP JUMPDEST SWAP7 SWAP10 SWAP6 SWAP9 POP SWAP4 SWAP7 POP SWAP3 SWAP5 SWAP4 SWAP3 POP POP POP JUMP JUMPDEST PUSH1 0x0 PUSH1 0x20 DUP3 DUP5 SUB SLT ISZERO PUSH2 0x178B JUMPI PUSH1 0x0 DUP1 REVERT JUMPDEST DUP2 CALLDATALOAD PUSH2 0x1796 DUP2 PUSH2 0x15A9 JUMP JUMPDEST SWAP4 SWAP3 POP POP POP JUMP JUMPDEST PUSH1 0x0 PUSH1 0x20 DUP3 DUP5 SUB SLT ISZERO PUSH2 0x17AF JUMPI PUSH1 0x0 DUP1 REVERT JUMPDEST PUSH2 0x1796 DUP3 PUSH2 0x165E JUMP JUMPDEST PUSH1 0x0 PUSH1 0x20 DUP3 DUP5 SUB SLT ISZERO PUSH2 0x17CA JUMPI PUSH1 0x0 DUP1 REVERT JUMPDEST POP CALLDATALOAD SWAP2 SWAP1 POP JUMP JUMPDEST PUSH1 0x0 PUSH1 0x60 DUP3 DUP5 SUB SLT ISZERO PUSH2 0x17E3 JUMPI PUSH1 0x0 DUP1 REVERT JUMPDEST PUSH2 0x1796 DUP4 DUP4 PUSH2 0x1548 JUMP JUMPDEST PUSH4 0x4E487B71 PUSH1 0xE0 SHL PUSH1 0x0 MSTORE PUSH1 0x11 PUSH1 0x4 MSTORE PUSH1 0x24 PUSH1 0x0 REVERT JUMPDEST DUP1 DUP3 MUL DUP2 ISZERO DUP3 DUP3 DIV DUP5 EQ OR PUSH2 0x6A9 JUMPI PUSH2 0x6A9 PUSH2 0x17ED JUMP JUMPDEST PUSH1 0x0 DUP3 PUSH2 0x1837 JUMPI PUSH4 0x4E487B71 PUSH1 0xE0 SHL PUSH1 0x0 MSTORE PUSH1 0x12 PUSH1 0x4 MSTORE PUSH1 0x24 PUSH1 0x0 REVERT JUMPDEST POP DIV SWAP1 JUMP JUMPDEST DUP1 DUP3 ADD DUP1 DUP3 GT ISZERO PUSH2 0x6A9 JUMPI PUSH2 0x6A9 PUSH2 0x17ED JUMP JUMPDEST DUP2 DUP2 SUB DUP2 DUP2 GT ISZERO PUSH2 0x6A9 JUMPI PUSH2 0x6A9 PUSH2 0x17ED JUMP JUMPDEST PUSH1 0x0 DUP1 PUSH1 0x40 DUP4 DUP6 SUB SLT ISZERO PUSH2 0x1875 JUMPI PUSH1 0x0 DUP1 REVERT JUMPDEST DUP3 CALLDATALOAD PUSH2 0x1693 DUP2 PUSH2 0x15A9 JUMP JUMPDEST PUSH1 0x0 JUMPDEST DUP4 DUP2 LT ISZERO PUSH2 0x189B JUMPI DUP2 DUP2 ADD MLOAD DUP4 DUP3 ADD MSTORE PUSH1 0x20 ADD PUSH2 0x1883 JUMP JUMPDEST POP POP PUSH1 0x0 SWAP2 ADD MSTORE JUMP JUMPDEST PUSH1 0x0 DUP2 MLOAD DUP1 DUP5 MSTORE PUSH2 0x18BC DUP2 PUSH1 0x20 DUP7 ADD PUSH1 0x20 DUP7 ADD PUSH2 0x1880 JUMP JUMPDEST PUSH1 0x1F ADD PUSH1 0x1F NOT AND SWAP3 SWAP1 SWAP3 ADD PUSH1 0x20 ADD SWAP3 SWAP2 POP POP JUMP JUMPDEST PUSH1 0x40 DUP2 MSTORE PUSH4 0xFFFFFFFF DUP4 MLOAD AND PUSH1 0x40 DUP3 ADD MSTORE PUSH1 0x20 DUP4 ADD MLOAD PUSH1 0x60 DUP3 ADD MSTORE PUSH1 0x0 PUSH1 0x40 DUP5 ADD MLOAD PUSH1 0xA0 PUSH1 0x80 DUP5 ADD MSTORE PUSH2 0x1906 PUSH1 0xE0 DUP5 ADD DUP3 PUSH2 0x18A4 JUMP JUMPDEST SWAP1 POP PUSH1 0x60 DUP6 ADD MLOAD PUSH1 0x3F NOT DUP5 DUP4 SUB ADD PUSH1 0xA0 DUP6 ADD MSTORE PUSH2 0x1923 DUP3 DUP3 PUSH2 0x18A4 JUMP JUMPDEST PUSH1 0x80 SWAP7 SWAP1 SWAP7 ADD MLOAD ISZERO ISZERO PUSH1 0xC0 DUP6 ADD MSTORE POP POP POP PUSH1 0x1 PUSH1 0x1 PUSH1 0xA0 SHL SUB SWAP2 SWAP1 SWAP2 AND PUSH1 0x20 SWAP1 SWAP2 ADD MSTORE SWAP1 JUMP JUMPDEST PUSH1 0x0 PUSH1 0x40 DUP3 DUP5 SUB SLT ISZERO PUSH2 0x195B JUMPI PUSH1 0x0 DUP1 REVERT JUMPDEST PUSH1 0x40 MLOAD PUSH1 0x40 DUP2 ADD DUP2 DUP2 LT PUSH8 0xFFFFFFFFFFFFFFFF DUP3 GT OR ISZERO PUSH2 0x198C JUMPI PUSH4 0x4E487B71 PUSH1 0xE0 SHL PUSH1 0x0 MSTORE PUSH1 0x41 PUSH1 0x4 MSTORE PUSH1 0x24 PUSH1 0x0 REVERT JUMPDEST PUSH1 0x40 MSTORE DUP3 MLOAD DUP2 MSTORE PUSH1 0x20 SWAP3 DUP4 ADD MLOAD SWAP3 DUP2 ADD SWAP3 SWAP1 SWAP3 MSTORE POP SWAP2 SWAP1 POP JUMP JUMPDEST PUSH1 0x0 PUSH1 0x40 DUP3 DUP5 SUB SLT ISZERO PUSH2 0x19B8 JUMPI PUSH1 0x0 DUP1 REVERT JUMPDEST PUSH2 0x1796 DUP4 DUP4 PUSH2 0x1949 JUMP JUMPDEST PUSH1 0x0 PUSH1 0x80 DUP3 DUP5 SUB SLT ISZERO PUSH2 0x19D4 JUMPI PUSH1 0x0 DUP1 REVERT JUMPDEST PUSH1 0x40 MLOAD PUSH1 0x60 DUP2 ADD PUSH8 0xFFFFFFFFFFFFFFFF DUP3 DUP3 LT DUP2 DUP4 GT OR ISZERO PUSH2 0x1A06 JUMPI PUSH4 0x4E487B71 PUSH1 0xE0 SHL PUSH1 0x0 MSTORE PUSH1 0x41 PUSH1 0x4 MSTORE PUSH1 0x24 PUSH1 0x0 REVERT JUMPDEST DUP2 PUSH1 0x40 MSTORE DUP5 MLOAD DUP4 MSTORE PUSH1 0x20 DUP6 ADD MLOAD SWAP2 POP DUP1 DUP3 AND DUP3 EQ PUSH2 0x1A23 JUMPI PUSH1 0x0 DUP1 REVERT JUMPDEST POP PUSH1 0x20 DUP3 ADD MSTORE PUSH2 0x1A36 DUP5 PUSH1 0x40 DUP6 ADD PUSH2 0x1949 JUMP JUMPDEST PUSH1 0x40 DUP3 ADD MSTORE SWAP4 SWAP3 POP POP POP JUMP JUMPDEST PUSH1 0x0 PUSH1 0x20 DUP3 DUP5 SUB SLT ISZERO PUSH2 0x1A54 JUMPI PUSH1 0x0 DUP1 REVERT JUMPDEST POP MLOAD SWAP2 SWAP1 POP JUMP JUMPDEST PUSH1 0x0 PUSH1 0x20 DUP3 DUP5 SUB SLT ISZERO PUSH2 0x1A6D JUMPI PUSH1 0x0 DUP1 REVERT JUMPDEST DUP2 MLOAD DUP1 ISZERO ISZERO DUP2 EQ PUSH2 0x1796 JUMPI PUSH1 0x0 DUP1 REVERT JUMPDEST PUSH1 0x0 PUSH1 0x20 DUP3 DUP5 SUB SLT ISZERO PUSH2 0x1A8F JUMPI PUSH1 0x0 DUP1 REVERT JUMPDEST DUP2 MLOAD PUSH2 0x1796 DUP2 PUSH2 0x15A9 JUMP JUMPDEST PUSH1 0x0 DUP3 MLOAD PUSH2 0x1AAC DUP2 DUP5 PUSH1 0x20 DUP8 ADD PUSH2 0x1880 JUMP JUMPDEST SWAP2 SWAP1 SWAP2 ADD SWAP3 SWAP2 POP POP JUMP JUMPDEST PUSH1 0x20 DUP2 MSTORE PUSH1 0x0 PUSH2 0x1796 PUSH1 0x20 DUP4 ADD DUP5 PUSH2 0x18A4 JUMP INVALID LOG2 PUSH5 0x6970667358 0x22 SLT KECCAK256 CALLCODE LOG2 DELEGATECALL XOR PUSH3 0x74A375 OR PUSH15 0xF05464AF2FEE088D232858D40C5D97 PUSH26 0xFE380230FA3264736F6C63430008160033000000000000000000 "},"methodIdentifiers":{"BPS()":"249d39e9","FEE_BPS()":"bf333f2c","allowInitializePath((uint32,bytes32,uint64))":"ff7bd03d","bridge(uint32,address,uint256,bytes)":"b0ffb11b","collectedFees()":"9003adfe","depositETH()":"f6326fb3","endpoint()":"5e280f11","ethDeposits(address)":"b9d1ed4a","isComposeMsgSender((uint32,bytes32,uint64),bytes,address)":"82413eac","lzReceive((uint32,bytes32,uint64),bytes32,bytes,address,bytes)":"13137d65","nextNonce(uint32,bytes32)":"7d25a05e","oAppVersion()":"17442b70","owner()":"8da5cb5b","peers(uint32)":"bb0b6a53","quoteBridgeFee(uint32,uint256)":"3d48ab15","renounceOwnership()":"715018a6","setDelegate(address)":"ca5eb5e1","setPeer(uint32,bytes32)":"3400288b","swapRouter()":"c31c9c07","transferOwnership(address)":"f2fde38b","usdt()":"2f48ab7d","weth()":"3fc8cef3","withdrawETH(uint256)":"f14210a6","withdrawFees()":"476343ee"}}}}}