{"contracts/mocks/MockEndpoint.sol":{"MockEndpoint":{"abi":[{"inputs":[],"name":"eid","outputs":[{"internalType":"uint32","name":"","type":"uint32"}],"stateMutability":"pure","type":"function"},{"inputs":[],"name":"mockNativeFee","outputs":[{"internalType":"uint256","name":"","type":"uint256"}],"stateMutability":"view","type":"function"},{"inputs":[],"name":"nonce","outputs":[{"internalType":"uint64","name":"","type":"uint64"}],"stateMutability":"view","type":"function"},{"inputs":[{"components":[{"internalType":"uint32","name":"dstEid","type":"uint32"},{"internalType":"bytes32","name":"receiver","type":"bytes32"},{"internalType":"bytes","name":"message","type":"bytes"},{"internalType":"bytes","name":"options","type":"bytes"},{"internalType":"bool","name":"payInLzToken","type":"bool"}],"internalType":"struct MessagingParams","name":"_params","type":"tuple"},{"internalType":"address","name":"_sender","type":"address"}],"name":"quote","outputs":[{"components":[{"internalType":"uint256","name":"nativeFee","type":"uint256"},{"internalType":"uint256","name":"lzTokenFee","type":"uint256"}],"internalType":"struct MessagingFee","name":"","type":"tuple"}],"stateMutability":"view","type":"function"},{"inputs":[{"components":[{"internalType":"uint32","name":"dstEid","type":"uint32"},{"internalType":"bytes32","name":"receiver","type":"bytes32"},{"internalType":"bytes","name":"message","type":"bytes"},{"internalType":"bytes","name":"options","type":"bytes"},{"internalType":"bool","name":"payInLzToken","type":"bool"}],"internalType":"struct MessagingParams","name":"_params","type":"tuple"},{"internalType":"address","name":"_refundAddress","type":"address"}],"name":"send","outputs":[{"components":[{"internalType":"bytes32","name":"guid","type":"bytes32"},{"internalType":"uint64","name":"nonce","type":"uint64"},{"components":[{"internalType":"uint256","name":"nativeFee","type":"uint256"},{"internalType":"uint256","name":"lzTokenFee","type":"uint256"}],"internalType":"struct MessagingFee","name":"fee","type":"tuple"}],"internalType":"struct MessagingReceipt","name":"","type":"tuple"}],"stateMutability":"payable","type":"function"},{"inputs":[{"internalType":"address","name":"","type":"address"}],"name":"setDelegate","outputs":[],"stateMutability":"nonpayable","type":"function"},{"inputs":[{"internalType":"uint256","name":"_fee","type":"uint256"}],"name":"setMockFee","outputs":[],"stateMutability":"nonpayable","type":"function"}],"evm":{"bytecode":{"linkReferences":{},"object":"608060405266038d7ea4c6800060015534801561001b57600080fd5b5061040f8061002b6000396000f3fe6080604052600436106100705760003560e01c806349ba316e1161004e57806349ba316e146100dd578063affed0e014610101578063ca5eb5e11461013b578063ddc28c581461015957600080fd5b80632637a450146100755780632a7e3f321461009e578063416ecebf146100c0575b600080fd5b6100886100833660046102bc565b6101ad565b604051610095919061030f565b60405180910390f35b3480156100aa57600080fd5b506100be6100b9366004610352565b600155565b005b3480156100cc57600080fd5b5060405161759e8152602001610095565b3480156100e957600080fd5b506100f360015481565b604051908152602001610095565b34801561010d57600080fd5b506000546101229067ffffffffffffffff1681565b60405167ffffffffffffffff9091168152602001610095565b34801561014757600080fd5b506100be61015636600461036b565b50565b34801561016557600080fd5b506101a06101743660046102bc565b505060408051808201825260008082526020918201819052825180840190935260015483529082015290565b604051610095919061038d565b6101b5610258565b6000805467ffffffffffffffff1690806101ce836103a4565b82546101009290920a67ffffffffffffffff818102199093169183160217909155604080516060810182526000805442608084015260c081901b6001600160c01b03191660a08401528351808403608801815260a8840185528051602091820120845294168483015282518084018452600154815293840152908101919091529150505b92915050565b604051806060016040528060008019168152602001600067ffffffffffffffff16815260200161029b604051806040016040528060008152602001600081525090565b905290565b80356001600160a01b03811681146102b757600080fd5b919050565b600080604083850312156102cf57600080fd5b823567ffffffffffffffff8111156102e657600080fd5b830160a081860312156102f857600080fd5b9150610306602084016102a0565b90509250929050565b60006080820190508251825267ffffffffffffffff6020840151166020830152604083015161034b604084018280518252602090810151910152565b5092915050565b60006020828403121561036457600080fd5b5035919050565b60006020828403121561037d57600080fd5b610386826102a0565b9392505050565b815181526020808301519082015260408101610252565b600067ffffffffffffffff8083168181036103cf57634e487b7160e01b600052601160045260246000fd5b600101939250505056fea2646970667358221220876fec7a18c5cc98e1187a04273149edea5aeacb3e7fdda7a2493aee871493f764736f6c63430008160033","opcodes":"PUSH1 0x80 PUSH1 0x40 MSTORE PUSH7 0x38D7EA4C68000 PUSH1 0x1 SSTORE CALLVALUE DUP1 ISZERO PUSH2 0x1B JUMPI PUSH1 0x0 DUP1 REVERT JUMPDEST POP PUSH2 0x40F DUP1 PUSH2 0x2B PUSH1 0x0 CODECOPY PUSH1 0x0 RETURN INVALID PUSH1 0x80 PUSH1 0x40 MSTORE PUSH1 0x4 CALLDATASIZE LT PUSH2 0x70 JUMPI PUSH1 0x0 CALLDATALOAD PUSH1 0xE0 SHR DUP1 PUSH4 0x49BA316E GT PUSH2 0x4E JUMPI DUP1 PUSH4 0x49BA316E EQ PUSH2 0xDD JUMPI DUP1 PUSH4 0xAFFED0E0 EQ PUSH2 0x101 JUMPI DUP1 PUSH4 0xCA5EB5E1 EQ PUSH2 0x13B JUMPI DUP1 PUSH4 0xDDC28C58 EQ PUSH2 0x159 JUMPI PUSH1 0x0 DUP1 REVERT JUMPDEST DUP1 PUSH4 0x2637A450 EQ PUSH2 0x75 JUMPI DUP1 PUSH4 0x2A7E3F32 EQ PUSH2 0x9E JUMPI DUP1 PUSH4 0x416ECEBF EQ PUSH2 0xC0 JUMPI JUMPDEST PUSH1 0x0 DUP1 REVERT JUMPDEST PUSH2 0x88 PUSH2 0x83 CALLDATASIZE PUSH1 0x4 PUSH2 0x2BC JUMP JUMPDEST PUSH2 0x1AD JUMP JUMPDEST PUSH1 0x40 MLOAD PUSH2 0x95 SWAP2 SWAP1 PUSH2 0x30F JUMP JUMPDEST PUSH1 0x40 MLOAD DUP1 SWAP2 SUB SWAP1 RETURN JUMPDEST CALLVALUE DUP1 ISZERO PUSH2 0xAA JUMPI PUSH1 0x0 DUP1 REVERT JUMPDEST POP PUSH2 0xBE PUSH2 0xB9 CALLDATASIZE PUSH1 0x4 PUSH2 0x352 JUMP JUMPDEST PUSH1 0x1 SSTORE JUMP JUMPDEST STOP JUMPDEST CALLVALUE DUP1 ISZERO PUSH2 0xCC JUMPI PUSH1 0x0 DUP1 REVERT JUMPDEST POP PUSH1 0x40 MLOAD PUSH2 0x759E DUP2 MSTORE PUSH1 0x20 ADD PUSH2 0x95 JUMP JUMPDEST CALLVALUE DUP1 ISZERO PUSH2 0xE9 JUMPI PUSH1 0x0 DUP1 REVERT JUMPDEST POP PUSH2 0xF3 PUSH1 0x1 SLOAD DUP2 JUMP JUMPDEST PUSH1 0x40 MLOAD SWAP1 DUP2 MSTORE PUSH1 0x20 ADD PUSH2 0x95 JUMP JUMPDEST CALLVALUE DUP1 ISZERO PUSH2 0x10D JUMPI PUSH1 0x0 DUP1 REVERT JUMPDEST POP PUSH1 0x0 SLOAD PUSH2 0x122 SWAP1 PUSH8 0xFFFFFFFFFFFFFFFF AND DUP2 JUMP JUMPDEST PUSH1 0x40 MLOAD PUSH8 0xFFFFFFFFFFFFFFFF SWAP1 SWAP2 AND DUP2 MSTORE PUSH1 0x20 ADD PUSH2 0x95 JUMP JUMPDEST CALLVALUE DUP1 ISZERO PUSH2 0x147 JUMPI PUSH1 0x0 DUP1 REVERT JUMPDEST POP PUSH2 0xBE PUSH2 0x156 CALLDATASIZE PUSH1 0x4 PUSH2 0x36B JUMP JUMPDEST POP JUMP JUMPDEST CALLVALUE DUP1 ISZERO PUSH2 0x165 JUMPI PUSH1 0x0 DUP1 REVERT JUMPDEST POP PUSH2 0x1A0 PUSH2 0x174 CALLDATASIZE PUSH1 0x4 PUSH2 0x2BC JUMP JUMPDEST POP POP PUSH1 0x40 DUP1 MLOAD DUP1 DUP3 ADD DUP3 MSTORE PUSH1 0x0 DUP1 DUP3 MSTORE PUSH1 0x20 SWAP2 DUP3 ADD DUP2 SWAP1 MSTORE DUP3 MLOAD DUP1 DUP5 ADD SWAP1 SWAP4 MSTORE PUSH1 0x1 SLOAD DUP4 MSTORE SWAP1 DUP3 ADD MSTORE SWAP1 JUMP JUMPDEST PUSH1 0x40 MLOAD PUSH2 0x95 SWAP2 SWAP1 PUSH2 0x38D JUMP JUMPDEST PUSH2 0x1B5 PUSH2 0x258 JUMP JUMPDEST PUSH1 0x0 DUP1 SLOAD PUSH8 0xFFFFFFFFFFFFFFFF AND SWAP1 DUP1 PUSH2 0x1CE DUP4 PUSH2 0x3A4 JUMP JUMPDEST DUP3 SLOAD PUSH2 0x100 SWAP3 SWAP1 SWAP3 EXP PUSH8 0xFFFFFFFFFFFFFFFF DUP2 DUP2 MUL NOT SWAP1 SWAP4 AND SWAP2 DUP4 AND MUL OR SWAP1 SWAP2 SSTORE PUSH1 0x40 DUP1 MLOAD PUSH1 0x60 DUP2 ADD DUP3 MSTORE PUSH1 0x0 DUP1 SLOAD TIMESTAMP PUSH1 0x80 DUP5 ADD MSTORE PUSH1 0xC0 DUP2 SWAP1 SHL PUSH1 0x1 PUSH1 0x1 PUSH1 0xC0 SHL SUB NOT AND PUSH1 0xA0 DUP5 ADD MSTORE DUP4 MLOAD DUP1 DUP5 SUB PUSH1 0x88 ADD DUP2 MSTORE PUSH1 0xA8 DUP5 ADD DUP6 MSTORE DUP1 MLOAD PUSH1 0x20 SWAP2 DUP3 ADD KECCAK256 DUP5 MSTORE SWAP5 AND DUP5 DUP4 ADD MSTORE DUP3 MLOAD DUP1 DUP5 ADD DUP5 MSTORE PUSH1 0x1 SLOAD DUP2 MSTORE SWAP4 DUP5 ADD MSTORE SWAP1 DUP2 ADD SWAP2 SWAP1 SWAP2 MSTORE SWAP2 POP POP JUMPDEST SWAP3 SWAP2 POP POP JUMP JUMPDEST PUSH1 0x40 MLOAD DUP1 PUSH1 0x60 ADD PUSH1 0x40 MSTORE DUP1 PUSH1 0x0 DUP1 NOT AND DUP2 MSTORE PUSH1 0x20 ADD PUSH1 0x0 PUSH8 0xFFFFFFFFFFFFFFFF AND DUP2 MSTORE PUSH1 0x20 ADD PUSH2 0x29B PUSH1 0x40 MLOAD DUP1 PUSH1 0x40 ADD PUSH1 0x40 MSTORE DUP1 PUSH1 0x0 DUP2 MSTORE PUSH1 0x20 ADD PUSH1 0x0 DUP2 MSTORE POP SWAP1 JUMP JUMPDEST SWAP1 MSTORE SWAP1 JUMP JUMPDEST DUP1 CALLDATALOAD PUSH1 0x1 PUSH1 0x1 PUSH1 0xA0 SHL SUB DUP2 AND DUP2 EQ PUSH2 0x2B7 JUMPI PUSH1 0x0 DUP1 REVERT JUMPDEST SWAP2 SWAP1 POP JUMP JUMPDEST PUSH1 0x0 DUP1 PUSH1 0x40 DUP4 DUP6 SUB SLT ISZERO PUSH2 0x2CF JUMPI PUSH1 0x0 DUP1 REVERT JUMPDEST DUP3 CALLDATALOAD PUSH8 0xFFFFFFFFFFFFFFFF DUP2 GT ISZERO PUSH2 0x2E6 JUMPI PUSH1 0x0 DUP1 REVERT JUMPDEST DUP4 ADD PUSH1 0xA0 DUP2 DUP7 SUB SLT ISZERO PUSH2 0x2F8 JUMPI PUSH1 0x0 DUP1 REVERT JUMPDEST SWAP2 POP PUSH2 0x306 PUSH1 0x20 DUP5 ADD PUSH2 0x2A0 JUMP JUMPDEST SWAP1 POP SWAP3 POP SWAP3 SWAP1 POP JUMP JUMPDEST PUSH1 0x0 PUSH1 0x80 DUP3 ADD SWAP1 POP DUP3 MLOAD DUP3 MSTORE PUSH8 0xFFFFFFFFFFFFFFFF PUSH1 0x20 DUP5 ADD MLOAD AND PUSH1 0x20 DUP4 ADD MSTORE PUSH1 0x40 DUP4 ADD MLOAD PUSH2 0x34B PUSH1 0x40 DUP5 ADD DUP3 DUP1 MLOAD DUP3 MSTORE PUSH1 0x20 SWAP1 DUP2 ADD MLOAD SWAP2 ADD MSTORE JUMP JUMPDEST POP SWAP3 SWAP2 POP POP JUMP JUMPDEST PUSH1 0x0 PUSH1 0x20 DUP3 DUP5 SUB SLT ISZERO PUSH2 0x364 JUMPI PUSH1 0x0 DUP1 REVERT JUMPDEST POP CALLDATALOAD SWAP2 SWAP1 POP JUMP JUMPDEST PUSH1 0x0 PUSH1 0x20 DUP3 DUP5 SUB SLT ISZERO PUSH2 0x37D JUMPI PUSH1 0x0 DUP1 REVERT JUMPDEST PUSH2 0x386 DUP3 PUSH2 0x2A0 JUMP JUMPDEST SWAP4 SWAP3 POP POP POP JUMP JUMPDEST DUP2 MLOAD DUP2 MSTORE PUSH1 0x20 DUP1 DUP4 ADD MLOAD SWAP1 DUP3 ADD MSTORE PUSH1 0x40 DUP2 ADD PUSH2 0x252 JUMP JUMPDEST PUSH1 0x0 PUSH8 0xFFFFFFFFFFFFFFFF DUP1 DUP4 AND DUP2 DUP2 SUB PUSH2 0x3CF JUMPI PUSH4 0x4E487B71 PUSH1 0xE0 SHL PUSH1 0x0 MSTORE PUSH1 0x11 PUSH1 0x4 MSTORE PUSH1 0x24 PUSH1 0x0 REVERT JUMPDEST PUSH1 0x1 ADD SWAP4 SWAP3 POP POP POP JUMP INVALID LOG2 PUSH5 0x6970667358 0x22 SLT KECCAK256 DUP8 PUSH16 0xEC7A18C5CC98E1187A04273149EDEA5A 0xEA 0xCB RETURNDATACOPY PUSH32 0xDDA7A2493AEE871493F764736F6C634300081600330000000000000000000000 "},"methodIdentifiers":{"eid()":"416ecebf","mockNativeFee()":"49ba316e","nonce()":"affed0e0","quote((uint32,bytes32,bytes,bytes,bool),address)":"ddc28c58","send((uint32,bytes32,bytes,bytes,bool),address)":"2637a450","setDelegate(address)":"ca5eb5e1","setMockFee(uint256)":"2a7e3f32"}}}}}