{
  "_format": "hh-sol-artifact-1",
  "contractName": "USDTBridgeWithDEX",
  "sourceName": "contracts/USDTBridgeWithDEX.sol",
  "abi": [
    {
      "inputs": [
        {
          "internalType": "address",
          "name": "_endpoint",
          "type": "address"
        },
        {
          "internalType": "address",
          "name": "_usdt",
          "type": "address"
        },
        {
          "internalType": "address",
          "name": "_swapRouter",
          "type": "address"
        },
        {
          "internalType": "address",
          "name": "_weth",
          "type": "address"
        },
        {
          "internalType": "address",
          "name": "_owner",
          "type": "address"
        }
      ],
      "stateMutability": "nonpayable",
      "type": "constructor"
    },
    {
      "inputs": [],
      "name": "InvalidDelegate",
      "type": "error"
    },
    {
      "inputs": [],
      "name": "InvalidEndpointCall",
      "type": "error"
    },
    {
      "inputs": [],
      "name": "LzTokenUnavailable",
      "type": "error"
    },
    {
      "inputs": [
        {
          "internalType": "uint32",
          "name": "eid",
          "type": "uint32"
        }
      ],
      "name": "NoPeer",
      "type": "error"
    },
    {
      "inputs": [
        {
          "internalType": "uint256",
          "name": "msgValue",
          "type": "uint256"
        }
      ],
      "name": "NotEnoughNative",
      "type": "error"
    },
    {
      "inputs": [
        {
          "internalType": "address",
          "name": "addr",
          "type": "address"
        }
      ],
      "name": "OnlyEndpoint",
      "type": "error"
    },
    {
      "inputs": [
        {
          "internalType": "uint32",
          "name": "eid",
          "type": "uint32"
        },
        {
          "internalType": "bytes32",
          "name": "sender",
          "type": "bytes32"
        }
      ],
      "name": "OnlyPeer",
      "type": "error"
    },
    {
      "anonymous": false,
      "inputs": [
        {
          "indexed": true,
          "internalType": "address",
          "name": "recipient",
          "type": "address"
        },
        {
          "indexed": true,
          "internalType": "uint32",
          "name": "srcEid",
          "type": "uint32"
        },
        {
          "indexed": false,
          "internalType": "uint256",
          "name": "usdtReceived",
          "type": "uint256"
        },
        {
          "indexed": false,
          "internalType": "bytes32",
          "name": "guid",
          "type": "bytes32"
        }
      ],
      "name": "BridgeCompleted",
      "type": "event"
    },
    {
      "anonymous": false,
      "inputs": [
        {
          "indexed": true,
          "internalType": "address",
          "name": "sender",
          "type": "address"
        },
        {
          "indexed": true,
          "internalType": "uint32",
          "name": "dstEid",
          "type": "uint32"
        },
        {
          "indexed": true,
          "internalType": "address",
          "name": "recipient",
          "type": "address"
        },
        {
          "indexed": false,
          "internalType": "uint256",
          "name": "amount",
          "type": "uint256"
        },
        {
          "indexed": false,
          "internalType": "bytes32",
          "name": "guid",
          "type": "bytes32"
        }
      ],
      "name": "BridgeInitiated",
      "type": "event"
    },
    {
      "anonymous": false,
      "inputs": [
        {
          "indexed": true,
          "internalType": "address",
          "name": "depositor",
          "type": "address"
        },
        {
          "indexed": false,
          "internalType": "uint256",
          "name": "amount",
          "type": "uint256"
        }
      ],
      "name": "ETHDeposited",
      "type": "event"
    },
    {
      "anonymous": false,
      "inputs": [
        {
          "indexed": true,
          "internalType": "address",
          "name": "recipient",
          "type": "address"
        },
        {
          "indexed": false,
          "internalType": "uint256",
          "name": "amount",
          "type": "uint256"
        }
      ],
      "name": "ETHWithdrawn",
      "type": "event"
    },
    {
      "anonymous": false,
      "inputs": [
        {
          "indexed": true,
          "internalType": "address",
          "name": "previousOwner",
          "type": "address"
        },
        {
          "indexed": true,
          "internalType": "address",
          "name": "newOwner",
          "type": "address"
        }
      ],
      "name": "OwnershipTransferred",
      "type": "event"
    },
    {
      "anonymous": false,
      "inputs": [
        {
          "indexed": false,
          "internalType": "uint32",
          "name": "eid",
          "type": "uint32"
        },
        {
          "indexed": false,
          "internalType": "bytes32",
          "name": "peer",
          "type": "bytes32"
        }
      ],
      "name": "PeerSet",
      "type": "event"
    },
    {
      "inputs": [],
      "name": "BPS",
      "outputs": [
        {
          "internalType": "uint256",
          "name": "",
          "type": "uint256"
        }
      ],
      "stateMutability": "view",
      "type": "function"
    },
    {
      "inputs": [],
      "name": "FEE_BPS",
      "outputs": [
        {
          "internalType": "uint256",
          "name": "",
          "type": "uint256"
        }
      ],
      "stateMutability": "view",
      "type": "function"
    },
    {
      "inputs": [
        {
          "components": [
            {
              "internalType": "uint32",
              "name": "srcEid",
              "type": "uint32"
            },
            {
              "internalType": "bytes32",
              "name": "sender",
              "type": "bytes32"
            },
            {
              "internalType": "uint64",
              "name": "nonce",
              "type": "uint64"
            }
          ],
          "internalType": "struct Origin",
          "name": "origin",
          "type": "tuple"
        }
      ],
      "name": "allowInitializePath",
      "outputs": [
        {
          "internalType": "bool",
          "name": "",
          "type": "bool"
        }
      ],
      "stateMutability": "view",
      "type": "function"
    },
    {
      "inputs": [
        {
          "internalType": "uint32",
          "name": "_dstEid",
          "type": "uint32"
        },
        {
          "internalType": "address",
          "name": "_recipient",
          "type": "address"
        },
        {
          "internalType": "uint256",
          "name": "_amount",
          "type": "uint256"
        },
        {
          "internalType": "bytes",
          "name": "_extraOptions",
          "type": "bytes"
        }
      ],
      "name": "bridge",
      "outputs": [
        {
          "components": [
            {
              "internalType": "bytes32",
              "name": "guid",
              "type": "bytes32"
            },
            {
              "internalType": "uint64",
              "name": "nonce",
              "type": "uint64"
            },
            {
              "components": [
                {
                  "internalType": "uint256",
                  "name": "nativeFee",
                  "type": "uint256"
                },
                {
                  "internalType": "uint256",
                  "name": "lzTokenFee",
                  "type": "uint256"
                }
              ],
              "internalType": "struct MessagingFee",
              "name": "fee",
              "type": "tuple"
            }
          ],
          "internalType": "struct MessagingReceipt",
          "name": "",
          "type": "tuple"
        }
      ],
      "stateMutability": "payable",
      "type": "function"
    },
    {
      "inputs": [],
      "name": "collectedFees",
      "outputs": [
        {
          "internalType": "uint256",
          "name": "",
          "type": "uint256"
        }
      ],
      "stateMutability": "view",
      "type": "function"
    },
    {
      "inputs": [],
      "name": "depositETH",
      "outputs": [],
      "stateMutability": "payable",
      "type": "function"
    },
    {
      "inputs": [],
      "name": "endpoint",
      "outputs": [
        {
          "internalType": "contract ILayerZeroEndpointV2",
          "name": "",
          "type": "address"
        }
      ],
      "stateMutability": "view",
      "type": "function"
    },
    {
      "inputs": [
        {
          "internalType": "address",
          "name": "",
          "type": "address"
        }
      ],
      "name": "ethDeposits",
      "outputs": [
        {
          "internalType": "uint256",
          "name": "",
          "type": "uint256"
        }
      ],
      "stateMutability": "view",
      "type": "function"
    },
    {
      "inputs": [
        {
          "components": [
            {
              "internalType": "uint32",
              "name": "srcEid",
              "type": "uint32"
            },
            {
              "internalType": "bytes32",
              "name": "sender",
              "type": "bytes32"
            },
            {
              "internalType": "uint64",
              "name": "nonce",
              "type": "uint64"
            }
          ],
          "internalType": "struct Origin",
          "name": "",
          "type": "tuple"
        },
        {
          "internalType": "bytes",
          "name": "",
          "type": "bytes"
        },
        {
          "internalType": "address",
          "name": "_sender",
          "type": "address"
        }
      ],
      "name": "isComposeMsgSender",
      "outputs": [
        {
          "internalType": "bool",
          "name": "",
          "type": "bool"
        }
      ],
      "stateMutability": "view",
      "type": "function"
    },
    {
      "inputs": [
        {
          "components": [
            {
              "internalType": "uint32",
              "name": "srcEid",
              "type": "uint32"
            },
            {
              "internalType": "bytes32",
              "name": "sender",
              "type": "bytes32"
            },
            {
              "internalType": "uint64",
              "name": "nonce",
              "type": "uint64"
            }
          ],
          "internalType": "struct Origin",
          "name": "_origin",
          "type": "tuple"
        },
        {
          "internalType": "bytes32",
          "name": "_guid",
          "type": "bytes32"
        },
        {
          "internalType": "bytes",
          "name": "_message",
          "type": "bytes"
        },
        {
          "internalType": "address",
          "name": "_executor",
          "type": "address"
        },
        {
          "internalType": "bytes",
          "name": "_extraData",
          "type": "bytes"
        }
      ],
      "name": "lzReceive",
      "outputs": [],
      "stateMutability": "payable",
      "type": "function"
    },
    {
      "inputs": [
        {
          "internalType": "uint32",
          "name": "",
          "type": "uint32"
        },
        {
          "internalType": "bytes32",
          "name": "",
          "type": "bytes32"
        }
      ],
      "name": "nextNonce",
      "outputs": [
        {
          "internalType": "uint64",
          "name": "nonce",
          "type": "uint64"
        }
      ],
      "stateMutability": "view",
      "type": "function"
    },
    {
      "inputs": [],
      "name": "oAppVersion",
      "outputs": [
        {
          "internalType": "uint64",
          "name": "senderVersion",
          "type": "uint64"
        },
        {
          "internalType": "uint64",
          "name": "receiverVersion",
          "type": "uint64"
        }
      ],
      "stateMutability": "pure",
      "type": "function"
    },
    {
      "inputs": [],
      "name": "owner",
      "outputs": [
        {
          "internalType": "address",
          "name": "",
          "type": "address"
        }
      ],
      "stateMutability": "view",
      "type": "function"
    },
    {
      "inputs": [
        {
          "internalType": "uint32",
          "name": "eid",
          "type": "uint32"
        }
      ],
      "name": "peers",
      "outputs": [
        {
          "internalType": "bytes32",
          "name": "peer",
          "type": "bytes32"
        }
      ],
      "stateMutability": "view",
      "type": "function"
    },
    {
      "inputs": [
        {
          "internalType": "uint32",
          "name": "_dstEid",
          "type": "uint32"
        },
        {
          "internalType": "uint256",
          "name": "_amount",
          "type": "uint256"
        }
      ],
      "name": "quoteBridgeFee",
      "outputs": [
        {
          "internalType": "uint256",
          "name": "totalFee",
          "type": "uint256"
        }
      ],
      "stateMutability": "view",
      "type": "function"
    },
    {
      "inputs": [],
      "name": "renounceOwnership",
      "outputs": [],
      "stateMutability": "nonpayable",
      "type": "function"
    },
    {
      "inputs": [
        {
          "internalType": "address",
          "name": "_delegate",
          "type": "address"
        }
      ],
      "name": "setDelegate",
      "outputs": [],
      "stateMutability": "nonpayable",
      "type": "function"
    },
    {
      "inputs": [
        {
          "internalType": "uint32",
          "name": "_eid",
          "type": "uint32"
        },
        {
          "internalType": "bytes32",
          "name": "_peer",
          "type": "bytes32"
        }
      ],
      "name": "setPeer",
      "outputs": [],
      "stateMutability": "nonpayable",
      "type": "function"
    },
    {
      "inputs": [],
      "name": "swapRouter",
      "outputs": [
        {
          "internalType": "contract ISwapRouter",
          "name": "",
          "type": "address"
        }
      ],
      "stateMutability": "view",
      "type": "function"
    },
    {
      "inputs": [
        {
          "internalType": "address",
          "name": "newOwner",
          "type": "address"
        }
      ],
      "name": "transferOwnership",
      "outputs": [],
      "stateMutability": "nonpayable",
      "type": "function"
    },
    {
      "inputs": [],
      "name": "usdt",
      "outputs": [
        {
          "internalType": "contract IERC20",
          "name": "",
          "type": "address"
        }
      ],
      "stateMutability": "view",
      "type": "function"
    },
    {
      "inputs": [],
      "name": "weth",
      "outputs": [
        {
          "internalType": "address",
          "name": "",
          "type": "address"
        }
      ],
      "stateMutability": "view",
      "type": "function"
    },
    {
      "inputs": [
        {
          "internalType": "uint256",
          "name": "amount",
          "type": "uint256"
        }
      ],
      "name": "withdrawETH",
      "outputs": [],
      "stateMutability": "nonpayable",
      "type": "function"
    },
    {
      "inputs": [],
      "name": "withdrawFees",
      "outputs": [],
      "stateMutability": "nonpayable",
      "type": "function"
    },
    {
      "stateMutability": "payable",
      "type": "receive"
    }
  ],
  "bytecode": "0x6101006040523480156200001257600080fd5b5060405162001d5d38038062001d5d833981016040819052620000359162000167565b848181816200004433620000fa565b6001600160a01b0380831660805281166200007257604051632d618d8160e21b815260040160405180910390fd5b60805160405163ca5eb5e160e01b81526001600160a01b0383811660048301529091169063ca5eb5e190602401600060405180830381600087803b158015620000ba57600080fd5b505af1158015620000cf573d6000803e3d6000fd5b5050506001600160a01b0398891660a0525050505092841660c0525090911660e05250620001d79050565b600080546001600160a01b038381166001600160a01b0319831681178455604051919092169283917f8be0079c531659141344cd1fd0a4f28419497f9722a3daafe3b4186f6b6457e09190a35050565b80516001600160a01b03811681146200016257600080fd5b919050565b600080600080600060a086880312156200018057600080fd5b6200018b866200014a565b94506200019b602087016200014a565b9350620001ab604087016200014a565b9250620001bb606087016200014a565b9150620001cb608087016200014a565b90509295509295909350565b60805160a05160c05160e051611aff6200025e60003960008181610259015261107e015260008181610443015261119c0152600081816101cd015281816106680152818161074801526110ad0152600081816102a2015281816104ef015281816108ab01528181610cfa01528181610f1d0152818161130f01526113c80152611aff6000f3fe60806040526004361061014f5760003560e01c80638da5cb5b116100b6578063c31c9c071161006f578063c31c9c0714610431578063ca5eb5e114610465578063f14210a614610485578063f2fde38b146104a5578063f6326fb3146104c5578063ff7bd03d146104cd57600080fd5b80638da5cb5b146103425780639003adfe14610360578063b0ffb11b14610376578063b9d1ed4a146103c2578063bb0b6a53146103ef578063bf333f2c1461041c57600080fd5b80633fc8cef3116101085780633fc8cef314610247578063476343ee1461027b5780635e280f1114610290578063715018a6146102c45780637d25a05e146102d957806382413eac1461031257600080fd5b806313137d651461015b57806317442b7014610170578063249d39e9146101975780632f48ab7d146101bb5780633400288b146102075780633d48ab151461022757600080fd5b3661015657005b600080fd5b61016e6101693660046115be565b6104ed565b005b34801561017c57600080fd5b50604080516001815260026020820152015b60405180910390f35b3480156101a357600080fd5b506101ad61271081565b60405190815260200161018e565b3480156101c757600080fd5b506101ef7f000000000000000000000000000000000000000000000000000000000000000081565b6040516001600160a01b03909116815260200161018e565b34801561021357600080fd5b5061016e610222366004611677565b6105ad565b34801561023357600080fd5b506101ad610242366004611677565b6105c3565b34801561025357600080fd5b506101ef7f000000000000000000000000000000000000000000000000000000000000000081565b34801561028757600080fd5b5061016e610638565b34801561029c57600080fd5b506101ef7f000000000000000000000000000000000000000000000000000000000000000081565b3480156102d057600080fd5b5061016e610692565b3480156102e557600080fd5b506102f96102f4366004611677565b6106a6565b60405167ffffffffffffffff909116815260200161018e565b34801561031e57600080fd5b5061033261032d3660046116a1565b6106af565b604051901515815260200161018e565b34801561034e57600080fd5b506000546001600160a01b03166101ef565b34801561036c57600080fd5b506101ad60025481565b610389610384366004611708565b6106c4565b604080518251815260208084015167ffffffffffffffff168183015292820151805192820192909252910151606082015260800161018e565b3480156103ce57600080fd5b506101ad6103dd366004611779565b60036020526000908152604090205481565b3480156103fb57600080fd5b506101ad61040a36600461179d565b60016020526000908152604090205481565b34801561042857600080fd5b506101ad601e81565b34801561043d57600080fd5b506101ef7f000000000000000000000000000000000000000000000000000000000000000081565b34801561047157600080fd5b5061016e610480366004611779565b610884565b34801561049157600080fd5b5061016e6104a03660046117b8565b61090a565b3480156104b157600080fd5b5061016e6104c0366004611779565b6109ea565b61016e610a60565b3480156104d957600080fd5b506103326104e83660046117d1565b610afe565b7f00000000000000000000000000000000000000000000000000000000000000006001600160a01b0316331461053d576040516391ac5e4f60e01b81523360048201526024015b60405180910390fd5b6020870180359061055790610552908a61179d565b610b34565b1461059557610569602088018861179d565b60405163309afaf360e21b815263ffffffff909116600482015260208801356024820152604401610534565b6105a487878787878787610b70565b50505050505050565b6105b5610bfc565b6105bf8282610c56565b5050565b604080513360208201528082018390528151808203830181526060909101909152600090816105fc85836105f5610cab565b6000610ce4565b9050600061060985610dc5565b9050606461061882606e611803565b610622919061181a565b825161062e919061183c565b9695505050505050565b610640610bfc565b60028054600090915561068f61065e6000546001600160a01b031690565b6001600160a01b037f0000000000000000000000000000000000000000000000000000000000000000169083610df4565b50565b61069a610bfc565b6106a46000610e5c565b565b60005b92915050565b6001600160a01b03811630145b949350505050565b6106cc611500565b600084116107115760405162461bcd60e51b81526020600482015260126024820152710416d6f756e74206d757374206265203e20360741b6044820152606401610534565b6000612710610721601e87611803565b61072b919061181a565b90506000610739828761184f565b90506107706001600160a01b037f000000000000000000000000000000000000000000000000000000000000000016333089610eac565b8160026000828254610782919061183c565b9091555050604080516001600160a01b038916602082015280820183905281518082038301815260609091019091526000856107c5576107c0610cab565b6107fc565b86868080601f0160208091040260200160405190810160405280939291908181526020018383808284376000920191909152505050505b905060006108228b84846040518060400160405280348152602001600081525033610eea565b80516040805187815260208101929092529192506001600160a01b038c169163ffffffff8e169133917fa5c6d033ac99145f1cc051448eeca6f45c8cb5557aa3ee2234233de0f84b0797910160405180910390a49a9950505050505050505050565b61088c610bfc565b60405163ca5eb5e160e01b81526001600160a01b0382811660048301527f0000000000000000000000000000000000000000000000000000000000000000169063ca5eb5e190602401600060405180830381600087803b1580156108ef57600080fd5b505af1158015610903573d6000803e3d6000fd5b5050505050565b336000908152600360205260409020548111156109605760405162461bcd60e51b8152602060048201526014602482015273496e73756666696369656e742062616c616e636560601b6044820152606401610534565b336000908152600360205260408120805483929061097f90849061184f565b9091555050604051339082156108fc029083906000818181858888f193505050501580156109b1573d6000803e3d6000fd5b5060405181815233907f94b2de810873337ed265c5f8cf98c9cffefa06b8607f9a2f1fbaebdfbcfbef1c9060200160405180910390a250565b6109f2610bfc565b6001600160a01b038116610a575760405162461bcd60e51b815260206004820152602660248201527f4f776e61626c653a206e6577206f776e657220697320746865207a65726f206160448201526564647265737360d01b6064820152608401610534565b61068f81610e5c565b60003411610aa35760405162461bcd60e51b815260206004820152601060248201526f09aeae6e840c8cae0dee6d2e8408aa8960831b6044820152606401610534565b3360009081526003602052604081208054349290610ac290849061183c565b909155505060405134815233907f6c703791f399558807424f489ccd811c72b4ff0b74af547264fad7c646776df09060200160405180910390a2565b6000602082018035906001908390610b16908661179d565b63ffffffff1681526020810191909152604001600020541492915050565b63ffffffff8116600090815260016020526040812054806106a95760405163f6ff4fb760e01b815263ffffffff84166004820152602401610534565b600080610b7f86880188611862565b915091506000610b8f8284610ff5565b9050610b9e60208b018b61179d565b63ffffffff16836001600160a01b03167fe0a3a79c4dd6dfc904a83da7f8cce2da4000d87eeda6effd556cf5a47fd8d75e838c604051610be8929190918252602082015260400190565b60405180910390a350505050505050505050565b6000546001600160a01b031633146106a45760405162461bcd60e51b815260206004820181905260248201527f4f776e61626c653a2063616c6c6572206973206e6f7420746865206f776e65726044820152606401610534565b63ffffffff8216600081815260016020908152604091829020849055815192835282018390527f238399d427b947898edb290f5ff0f9109849b1c3ba196a42e35f00c50a54b98b910160405180910390a15050565b604051600360f01b6020820152613d0960851b602282015260006032820152606090604201604051602081830303815290604052905090565b60408051808201909152600080825260208201527f00000000000000000000000000000000000000000000000000000000000000006001600160a01b031663ddc28c586040518060a001604052808863ffffffff168152602001610d4789610b34565b8152602001878152602001868152602001851515815250306040518363ffffffff1660e01b8152600401610d7c9291906118d0565b6040805180830381865afa158015610d98573d6000803e3d6000fd5b505050506040513d601f19601f82011682018060405250810190610dbc91906119a6565b95945050505050565b6000620f4240610bb8610de084670de0b6b3a7640000611803565b610dea919061181a565b6106a9919061181a565b6040516001600160a01b038316602482015260448101829052610e5790849063a9059cbb60e01b906064015b60408051601f198184030181529190526020810180516001600160e01b03166001600160e01b03199093169290921790915261120e565b505050565b600080546001600160a01b038381166001600160a01b0319831681178455604051919092169283917f8be0079c531659141344cd1fd0a4f28419497f9722a3daafe3b4186f6b6457e09190a35050565b6040516001600160a01b0380851660248301528316604482015260648101829052610ee49085906323b872dd60e01b90608401610e20565b50505050565b610ef2611500565b6000610f0184600001516112e3565b602085015190915015610f1b57610f1b846020015161130b565b7f00000000000000000000000000000000000000000000000000000000000000006001600160a01b0316632637a450826040518060a001604052808b63ffffffff168152602001610f6b8c610b34565b81526020018a815260200189815260200160008960200151111515815250866040518463ffffffff1660e01b8152600401610fa79291906118d0565b60806040518083038185885af1158015610fc5573d6000803e3d6000fd5b50505050506040513d601f19601f82011682018060405250810190610fea91906119c2565b979650505050505050565b60008061100184610dc5565b905060006064611012836069611803565b61101c919061181a565b90508047101561106e5760405162461bcd60e51b815260206004820152601960248201527f496e73756666696369656e742045544820666f722073776170000000000000006044820152606401610534565b60006040518061010001604052807f00000000000000000000000000000000000000000000000000000000000000006001600160a01b031681526020017f00000000000000000000000000000000000000000000000000000000000000006001600160a01b03168152602001610bb862ffffff168152602001866001600160a01b03168152602001428152602001838152602001606488605f6111119190611803565b61111b919061181a565b8152600060209182018190526040805163414bf38960e01b815284516001600160a01b03908116600483015293850151841660248201529084015162ffffff1660448201526060840151831660648201526080840151608482015260a084015160a482015260c084015160c482015260e0840151831660e4820152929350917f00000000000000000000000000000000000000000000000000000000000000009091169063414bf3899085906101040160206040518083038185885af11580156111e9573d6000803e3d6000fd5b50505050506040513d601f19601f82011682018060405250810190610fea9190611a42565b6000611263826040518060400160405280602081526020017f5361666545524332303a206c6f772d6c6576656c2063616c6c206661696c6564815250856001600160a01b03166113ed9092919063ffffffff16565b90508051600014806112845750808060200190518101906112849190611a5b565b610e575760405162461bcd60e51b815260206004820152602a60248201527f5361666545524332303a204552433230206f7065726174696f6e20646964206e6044820152691bdd081cdd58d8d9595960b21b6064820152608401610534565b6000813414611307576040516304fb820960e51b8152346004820152602401610534565b5090565b60007f00000000000000000000000000000000000000000000000000000000000000006001600160a01b031663e4fe1d946040518163ffffffff1660e01b8152600401602060405180830381865afa15801561136b573d6000803e3d6000fd5b505050506040513d601f19601f8201168201806040525081019061138f9190611a7d565b90506001600160a01b0381166113b8576040516329b99a9560e11b815260040160405180910390fd5b6105bf6001600160a01b038216337f000000000000000000000000000000000000000000000000000000000000000085610eac565b60606106bc848460008585600080866001600160a01b031685876040516114149190611a9a565b60006040518083038185875af1925050503d8060008114611451576040519150601f19603f3d011682016040523d82523d6000602084013e611456565b606091505b5091509150610fea87838387606083156114d15782516000036114ca576001600160a01b0385163b6114ca5760405162461bcd60e51b815260206004820152601d60248201527f416464726573733a2063616c6c20746f206e6f6e2d636f6e74726163740000006044820152606401610534565b50816106bc565b6106bc83838151156114e65781518083602001fd5b8060405162461bcd60e51b81526004016105349190611ab6565b604051806060016040528060008019168152602001600067ffffffffffffffff168152602001611543604051806040016040528060008152602001600081525090565b905290565b60006060828403121561155a57600080fd5b50919050565b60008083601f84011261157257600080fd5b50813567ffffffffffffffff81111561158a57600080fd5b6020830191508360208285010111156115a257600080fd5b9250929050565b6001600160a01b038116811461068f57600080fd5b600080600080600080600060e0888a0312156115d957600080fd5b6115e38989611548565b965060608801359550608088013567ffffffffffffffff8082111561160757600080fd5b6116138b838c01611560565b909750955060a08a01359150611628826115a9565b90935060c0890135908082111561163e57600080fd5b5061164b8a828b01611560565b989b979a50959850939692959293505050565b803563ffffffff8116811461167257600080fd5b919050565b6000806040838503121561168a57600080fd5b6116938361165e565b946020939093013593505050565b60008060008060a085870312156116b757600080fd5b6116c18686611548565b9350606085013567ffffffffffffffff8111156116dd57600080fd5b6116e987828801611560565b90945092505060808501356116fd816115a9565b939692955090935050565b60008060008060006080868803121561172057600080fd5b6117298661165e565b94506020860135611739816115a9565b935060408601359250606086013567ffffffffffffffff81111561175c57600080fd5b61176888828901611560565b969995985093965092949392505050565b60006020828403121561178b57600080fd5b8135611796816115a9565b9392505050565b6000602082840312156117af57600080fd5b6117968261165e565b6000602082840312156117ca57600080fd5b5035919050565b6000606082840312156117e357600080fd5b6117968383611548565b634e487b7160e01b600052601160045260246000fd5b80820281158282048414176106a9576106a96117ed565b60008261183757634e487b7160e01b600052601260045260246000fd5b500490565b808201808211156106a9576106a96117ed565b818103818111156106a9576106a96117ed565b6000806040838503121561187557600080fd5b8235611693816115a9565b60005b8381101561189b578181015183820152602001611883565b50506000910152565b600081518084526118bc816020860160208601611880565b601f01601f19169290920160200192915050565b6040815263ffffffff8351166040820152602083015160608201526000604084015160a0608084015261190660e08401826118a4565b90506060850151603f198483030160a085015261192382826118a4565b60809690960151151560c08501525050506001600160a01b039190911660209091015290565b60006040828403121561195b57600080fd5b6040516040810181811067ffffffffffffffff8211171561198c57634e487b7160e01b600052604160045260246000fd5b604052825181526020928301519281019290925250919050565b6000604082840312156119b857600080fd5b6117968383611949565b6000608082840312156119d457600080fd5b6040516060810167ffffffffffffffff8282108183111715611a0657634e487b7160e01b600052604160045260246000fd5b8160405284518352602085015191508082168214611a2357600080fd5b506020820152611a368460408501611949565b60408201529392505050565b600060208284031215611a5457600080fd5b5051919050565b600060208284031215611a6d57600080fd5b8151801515811461179657600080fd5b600060208284031215611a8f57600080fd5b8151611796816115a9565b60008251611aac818460208701611880565b9190910192915050565b60208152600061179660208301846118a456fea26469706673582212205d4df25fa700b74be029f625a8015f64a376b688dd8403bdf6339f4c3a7366a464736f6c63430008160033",
  "linkReferences": {},
  "deployedLinkReferences": {}
}