{
  "_format": "hh-sol-artifact-1",
  "contractName": "MockEndpoint",
  "sourceName": "contracts/mocks/MockEndpoint.sol",
  "abi": [
    {
      "inputs": [],
      "name": "eid",
      "outputs": [
        {
          "internalType": "uint32",
          "name": "",
          "type": "uint32"
        }
      ],
      "stateMutability": "pure",
      "type": "function"
    },
    {
      "inputs": [],
      "name": "mockNativeFee",
      "outputs": [
        {
          "internalType": "uint256",
          "name": "",
          "type": "uint256"
        }
      ],
      "stateMutability": "view",
      "type": "function"
    },
    {
      "inputs": [],
      "name": "nonce",
      "outputs": [
        {
          "internalType": "uint64",
          "name": "",
          "type": "uint64"
        }
      ],
      "stateMutability": "view",
      "type": "function"
    },
    {
      "inputs": [
        {
          "components": [
            {
              "internalType": "uint32",
              "name": "dstEid",
              "type": "uint32"
            },
            {
              "internalType": "bytes32",
              "name": "receiver",
              "type": "bytes32"
            },
            {
              "internalType": "bytes",
              "name": "message",
              "type": "bytes"
            },
            {
              "internalType": "bytes",
              "name": "options",
              "type": "bytes"
            },
            {
              "internalType": "bool",
              "name": "payInLzToken",
              "type": "bool"
            }
          ],
          "internalType": "struct MessagingParams",
          "name": "",
          "type": "tuple"
        },
        {
          "internalType": "address",
          "name": "",
          "type": "address"
        }
      ],
      "name": "quote",
      "outputs": [
        {
          "components": [
            {
              "internalType": "uint256",
              "name": "nativeFee",
              "type": "uint256"
            },
            {
              "internalType": "uint256",
              "name": "lzTokenFee",
              "type": "uint256"
            }
          ],
          "internalType": "struct MessagingFee",
          "name": "",
          "type": "tuple"
        }
      ],
      "stateMutability": "view",
      "type": "function"
    },
    {
      "inputs": [
        {
          "components": [
            {
              "internalType": "uint32",
              "name": "dstEid",
              "type": "uint32"
            },
            {
              "internalType": "bytes32",
              "name": "receiver",
              "type": "bytes32"
            },
            {
              "internalType": "bytes",
              "name": "message",
              "type": "bytes"
            },
            {
              "internalType": "bytes",
              "name": "options",
              "type": "bytes"
            },
            {
              "internalType": "bool",
              "name": "payInLzToken",
              "type": "bool"
            }
          ],
          "internalType": "struct MessagingParams",
          "name": "",
          "type": "tuple"
        },
        {
          "internalType": "address",
          "name": "",
          "type": "address"
        }
      ],
      "name": "send",
      "outputs": [
        {
          "components": [
            {
              "internalType": "bytes32",
              "name": "guid",
              "type": "bytes32"
            },
            {
              "internalType": "uint64",
              "name": "nonce",
              "type": "uint64"
            },
            {
              "components": [
                {
                  "internalType": "uint256",
                  "name": "nativeFee",
                  "type": "uint256"
                },
                {
                  "internalType": "uint256",
                  "name": "lzTokenFee",
                  "type": "uint256"
                }
              ],
              "internalType": "struct MessagingFee",
              "name": "fee",
              "type": "tuple"
            }
          ],
          "internalType": "struct MessagingReceipt",
          "name": "",
          "type": "tuple"
        }
      ],
      "stateMutability": "payable",
      "type": "function"
    },
    {
      "inputs": [
        {
          "internalType": "address",
          "name": "",
          "type": "address"
        }
      ],
      "name": "setDelegate",
      "outputs": [],
      "stateMutability": "nonpayable",
      "type": "function"
    },
    {
      "inputs": [
        {
          "internalType": "uint256",
          "name": "_fee",
          "type": "uint256"
        }
      ],
      "name": "setMockFee",
      "outputs": [],
      "stateMutability": "nonpayable",
      "type": "function"
    }
  ],
  "bytecode": "0x608060405266038d7ea4c6800060015534801561001b57600080fd5b506107878061002b6000396000f3fe6080604052600436106100705760003560e01c806349ba316e1161004e57806349ba316e146100f9578063affed0e014610124578063ca5eb5e11461014f578063ddc28c581461017857610070565b80632637a450146100755780632a7e3f32146100a5578063416ecebf146100ce575b600080fd5b61008f600480360381019061008a91906103d4565b6101b5565b60405161009c91906104f6565b60405180910390f35b3480156100b157600080fd5b506100cc60048036038101906100c7919061053d565b61029d565b005b3480156100da57600080fd5b506100e36102a7565b6040516100f09190610589565b60405180910390f35b34801561010557600080fd5b5061010e6102b1565b60405161011b91906105b3565b60405180910390f35b34801561013057600080fd5b506101396102b7565b60405161014691906105dd565b60405180910390f35b34801561015b57600080fd5b50610176600480360381019061017191906105f8565b6102cf565b005b34801561018457600080fd5b5061019f600480360381019061019a91906103d4565b6102d2565b6040516101ac9190610654565b60405180910390f35b6101bd6102fa565b60008081819054906101000a900467ffffffffffffffff16809291906101e29061069e565b91906101000a81548167ffffffffffffffff021916908367ffffffffffffffff1602179055505060405180606001604052804260008054906101000a900467ffffffffffffffff1660405160200161023b929190610725565b60405160208183030381529060405280519060200120815260200160008054906101000a900467ffffffffffffffff1667ffffffffffffffff168152602001604051806040016040528060015481526020016000815250815250905092915050565b8060018190555050565b600061759e905090565b60015481565b60008054906101000a900467ffffffffffffffff1681565b50565b6102da61032e565b604051806040016040528060015481526020016000815250905092915050565b604051806060016040528060008019168152602001600067ffffffffffffffff16815260200161032861032e565b81525090565b604051806040016040528060008152602001600081525090565b600080fd5b600080fd5b600080fd5b600060a0828403121561036d5761036c610352565b5b81905092915050565b600073ffffffffffffffffffffffffffffffffffffffff82169050919050565b60006103a182610376565b9050919050565b6103b181610396565b81146103bc57600080fd5b50565b6000813590506103ce816103a8565b92915050565b600080604083850312156103eb576103ea610348565b5b600083013567ffffffffffffffff8111156104095761040861034d565b5b61041585828601610357565b9250506020610426858286016103bf565b9150509250929050565b6000819050919050565b61044381610430565b82525050565b600067ffffffffffffffff82169050919050565b61046681610449565b82525050565b6000819050919050565b61047f8161046c565b82525050565b60408201600082015161049b6000850182610476565b5060208201516104ae6020850182610476565b50505050565b6080820160008201516104ca600085018261043a565b5060208201516104dd602085018261045d565b5060408201516104f06040850182610485565b50505050565b600060808201905061050b60008301846104b4565b92915050565b61051a8161046c565b811461052557600080fd5b50565b60008135905061053781610511565b92915050565b60006020828403121561055357610552610348565b5b600061056184828501610528565b91505092915050565b600063ffffffff82169050919050565b6105838161056a565b82525050565b600060208201905061059e600083018461057a565b92915050565b6105ad8161046c565b82525050565b60006020820190506105c860008301846105a4565b92915050565b6105d781610449565b82525050565b60006020820190506105f260008301846105ce565b92915050565b60006020828403121561060e5761060d610348565b5b600061061c848285016103bf565b91505092915050565b60408201600082015161063b6000850182610476565b50602082015161064e6020850182610476565b50505050565b60006040820190506106696000830184610625565b92915050565b7f4e487b7100000000000000000000000000000000000000000000000000000000600052601160045260246000fd5b60006106a982610449565b915067ffffffffffffffff82036106c3576106c261066f565b5b600182019050919050565b6000819050919050565b6106e96106e48261046c565b6106ce565b82525050565b60008160c01b9050919050565b6000610707826106ef565b9050919050565b61071f61071a82610449565b6106fc565b82525050565b600061073182856106d8565b602082019150610741828461070e565b600882019150819050939250505056fea2646970667358221220eb9fea846042a6eacb1713001309689ac70681b078a69b3671f661fadccc8eb764736f6c63430008160033",
  "linkReferences": {},
  "deployedLinkReferences": {}
}