{
  "_format": "hh-sol-artifact-1",
  "contractName": "MockSwapRouter",
  "sourceName": "contracts/mocks/MockSwapRouter.sol",
  "abi": [
    {
      "inputs": [
        {
          "components": [
            {
              "internalType": "address",
              "name": "tokenIn",
              "type": "address"
            },
            {
              "internalType": "address",
              "name": "tokenOut",
              "type": "address"
            },
            {
              "internalType": "uint24",
              "name": "fee",
              "type": "uint24"
            },
            {
              "internalType": "address",
              "name": "recipient",
              "type": "address"
            },
            {
              "internalType": "uint256",
              "name": "deadline",
              "type": "uint256"
            },
            {
              "internalType": "uint256",
              "name": "amountIn",
              "type": "uint256"
            },
            {
              "internalType": "uint256",
              "name": "amountOutMinimum",
              "type": "uint256"
            },
            {
              "internalType": "uint160",
              "name": "sqrtPriceLimitX96",
              "type": "uint160"
            }
          ],
          "internalType": "struct MockSwapRouter.ExactInputSingleParams",
          "name": "params",
          "type": "tuple"
        }
      ],
      "name": "exactInputSingle",
      "outputs": [
        {
          "internalType": "uint256",
          "name": "amountOut",
          "type": "uint256"
        }
      ],
      "stateMutability": "payable",
      "type": "function"
    }
  ],
  "bytecode": "0x608060405234801561001057600080fd5b5061010f806100206000396000f3fe608060405260043610601c5760003560e01c8063414bf389146021575b600080fd5b60376004803603810190603391906080565b604b565b6040516042919060c0565b60405180910390f35b60008160c001359050919050565b600080fd5b600080fd5b600061010082840312156077576076605e565b5b81905092915050565b6000610100828403121560945760936059565b5b600060a0848285016063565b91505092915050565b6000819050919050565b60ba8160a9565b82525050565b600060208201905060d3600083018460b3565b9291505056fea2646970667358221220bd399eea13d7746d2bca3337fa0bb523794ffc4052fe4f82b449d277abcd7e0464736f6c63430008160033",
  "linkReferences": {},
  "deployedLinkReferences": {}
}