{
  "_format": "hh-sol-artifact-1",
  "contractName": "SimpleBridgeTestnet",
  "sourceName": "contracts/SimpleBridgeTestnet.sol",
  "abi": [
    {
      "inputs": [
        {
          "internalType": "address",
          "name": "_endpoint",
          "type": "address"
        },
        {
          "internalType": "address",
          "name": "_usdt",
          "type": "address"
        },
        {
          "internalType": "address",
          "name": "_owner",
          "type": "address"
        }
      ],
      "stateMutability": "nonpayable",
      "type": "constructor"
    },
    {
      "inputs": [],
      "name": "InvalidDelegate",
      "type": "error"
    },
    {
      "inputs": [],
      "name": "InvalidEndpointCall",
      "type": "error"
    },
    {
      "inputs": [],
      "name": "LzTokenUnavailable",
      "type": "error"
    },
    {
      "inputs": [
        {
          "internalType": "uint32",
          "name": "eid",
          "type": "uint32"
        }
      ],
      "name": "NoPeer",
      "type": "error"
    },
    {
      "inputs": [
        {
          "internalType": "uint256",
          "name": "msgValue",
          "type": "uint256"
        }
      ],
      "name": "NotEnoughNative",
      "type": "error"
    },
    {
      "inputs": [
        {
          "internalType": "address",
          "name": "addr",
          "type": "address"
        }
      ],
      "name": "OnlyEndpoint",
      "type": "error"
    },
    {
      "inputs": [
        {
          "internalType": "uint32",
          "name": "eid",
          "type": "uint32"
        },
        {
          "internalType": "bytes32",
          "name": "sender",
          "type": "bytes32"
        }
      ],
      "name": "OnlyPeer",
      "type": "error"
    },
    {
      "anonymous": false,
      "inputs": [
        {
          "indexed": true,
          "internalType": "address",
          "name": "recipient",
          "type": "address"
        },
        {
          "indexed": true,
          "internalType": "uint32",
          "name": "srcEid",
          "type": "uint32"
        },
        {
          "indexed": false,
          "internalType": "uint256",
          "name": "amount",
          "type": "uint256"
        },
        {
          "indexed": false,
          "internalType": "bytes32",
          "name": "guid",
          "type": "bytes32"
        }
      ],
      "name": "BridgeCompleted",
      "type": "event"
    },
    {
      "anonymous": false,
      "inputs": [
        {
          "indexed": true,
          "internalType": "address",
          "name": "sender",
          "type": "address"
        },
        {
          "indexed": true,
          "internalType": "uint32",
          "name": "dstEid",
          "type": "uint32"
        },
        {
          "indexed": true,
          "internalType": "address",
          "name": "recipient",
          "type": "address"
        },
        {
          "indexed": false,
          "internalType": "uint256",
          "name": "amount",
          "type": "uint256"
        },
        {
          "indexed": false,
          "internalType": "bytes32",
          "name": "guid",
          "type": "bytes32"
        }
      ],
      "name": "BridgeInitiated",
      "type": "event"
    },
    {
      "anonymous": false,
      "inputs": [
        {
          "indexed": true,
          "internalType": "address",
          "name": "previousOwner",
          "type": "address"
        },
        {
          "indexed": true,
          "internalType": "address",
          "name": "newOwner",
          "type": "address"
        }
      ],
      "name": "OwnershipTransferred",
      "type": "event"
    },
    {
      "anonymous": false,
      "inputs": [
        {
          "indexed": false,
          "internalType": "uint32",
          "name": "eid",
          "type": "uint32"
        },
        {
          "indexed": false,
          "internalType": "bytes32",
          "name": "peer",
          "type": "bytes32"
        }
      ],
      "name": "PeerSet",
      "type": "event"
    },
    {
      "inputs": [
        {
          "components": [
            {
              "internalType": "uint32",
              "name": "srcEid",
              "type": "uint32"
            },
            {
              "internalType": "bytes32",
              "name": "sender",
              "type": "bytes32"
            },
            {
              "internalType": "uint64",
              "name": "nonce",
              "type": "uint64"
            }
          ],
          "internalType": "struct Origin",
          "name": "origin",
          "type": "tuple"
        }
      ],
      "name": "allowInitializePath",
      "outputs": [
        {
          "internalType": "bool",
          "name": "",
          "type": "bool"
        }
      ],
      "stateMutability": "view",
      "type": "function"
    },
    {
      "inputs": [
        {
          "internalType": "uint32",
          "name": "_dstEid",
          "type": "uint32"
        },
        {
          "internalType": "address",
          "name": "_recipient",
          "type": "address"
        },
        {
          "internalType": "uint256",
          "name": "_amount",
          "type": "uint256"
        },
        {
          "internalType": "bytes",
          "name": "_extraOptions",
          "type": "bytes"
        }
      ],
      "name": "bridge",
      "outputs": [
        {
          "components": [
            {
              "internalType": "bytes32",
              "name": "guid",
              "type": "bytes32"
            },
            {
              "internalType": "uint64",
              "name": "nonce",
              "type": "uint64"
            },
            {
              "components": [
                {
                  "internalType": "uint256",
                  "name": "nativeFee",
                  "type": "uint256"
                },
                {
                  "internalType": "uint256",
                  "name": "lzTokenFee",
                  "type": "uint256"
                }
              ],
              "internalType": "struct MessagingFee",
              "name": "fee",
              "type": "tuple"
            }
          ],
          "internalType": "struct MessagingReceipt",
          "name": "",
          "type": "tuple"
        }
      ],
      "stateMutability": "payable",
      "type": "function"
    },
    {
      "inputs": [
        {
          "internalType": "address",
          "name": "_token",
          "type": "address"
        },
        {
          "internalType": "uint256",
          "name": "_amount",
          "type": "uint256"
        }
      ],
      "name": "emergencyWithdraw",
      "outputs": [],
      "stateMutability": "nonpayable",
      "type": "function"
    },
    {
      "inputs": [],
      "name": "endpoint",
      "outputs": [
        {
          "internalType": "contract ILayerZeroEndpointV2",
          "name": "",
          "type": "address"
        }
      ],
      "stateMutability": "view",
      "type": "function"
    },
    {
      "inputs": [],
      "name": "getBalance",
      "outputs": [
        {
          "internalType": "uint256",
          "name": "",
          "type": "uint256"
        }
      ],
      "stateMutability": "view",
      "type": "function"
    },
    {
      "inputs": [
        {
          "components": [
            {
              "internalType": "uint32",
              "name": "srcEid",
              "type": "uint32"
            },
            {
              "internalType": "bytes32",
              "name": "sender",
              "type": "bytes32"
            },
            {
              "internalType": "uint64",
              "name": "nonce",
              "type": "uint64"
            }
          ],
          "internalType": "struct Origin",
          "name": "",
          "type": "tuple"
        },
        {
          "internalType": "bytes",
          "name": "",
          "type": "bytes"
        },
        {
          "internalType": "address",
          "name": "_sender",
          "type": "address"
        }
      ],
      "name": "isComposeMsgSender",
      "outputs": [
        {
          "internalType": "bool",
          "name": "",
          "type": "bool"
        }
      ],
      "stateMutability": "view",
      "type": "function"
    },
    {
      "inputs": [
        {
          "components": [
            {
              "internalType": "uint32",
              "name": "srcEid",
              "type": "uint32"
            },
            {
              "internalType": "bytes32",
              "name": "sender",
              "type": "bytes32"
            },
            {
              "internalType": "uint64",
              "name": "nonce",
              "type": "uint64"
            }
          ],
          "internalType": "struct Origin",
          "name": "_origin",
          "type": "tuple"
        },
        {
          "internalType": "bytes32",
          "name": "_guid",
          "type": "bytes32"
        },
        {
          "internalType": "bytes",
          "name": "_message",
          "type": "bytes"
        },
        {
          "internalType": "address",
          "name": "_executor",
          "type": "address"
        },
        {
          "internalType": "bytes",
          "name": "_extraData",
          "type": "bytes"
        }
      ],
      "name": "lzReceive",
      "outputs": [],
      "stateMutability": "payable",
      "type": "function"
    },
    {
      "inputs": [
        {
          "internalType": "uint32",
          "name": "",
          "type": "uint32"
        },
        {
          "internalType": "bytes32",
          "name": "",
          "type": "bytes32"
        }
      ],
      "name": "nextNonce",
      "outputs": [
        {
          "internalType": "uint64",
          "name": "nonce",
          "type": "uint64"
        }
      ],
      "stateMutability": "view",
      "type": "function"
    },
    {
      "inputs": [],
      "name": "oAppVersion",
      "outputs": [
        {
          "internalType": "uint64",
          "name": "senderVersion",
          "type": "uint64"
        },
        {
          "internalType": "uint64",
          "name": "receiverVersion",
          "type": "uint64"
        }
      ],
      "stateMutability": "pure",
      "type": "function"
    },
    {
      "inputs": [],
      "name": "owner",
      "outputs": [
        {
          "internalType": "address",
          "name": "",
          "type": "address"
        }
      ],
      "stateMutability": "view",
      "type": "function"
    },
    {
      "inputs": [
        {
          "internalType": "uint32",
          "name": "eid",
          "type": "uint32"
        }
      ],
      "name": "peers",
      "outputs": [
        {
          "internalType": "bytes32",
          "name": "peer",
          "type": "bytes32"
        }
      ],
      "stateMutability": "view",
      "type": "function"
    },
    {
      "inputs": [
        {
          "internalType": "uint32",
          "name": "_dstEid",
          "type": "uint32"
        },
        {
          "internalType": "uint256",
          "name": "_amount",
          "type": "uint256"
        },
        {
          "internalType": "bytes",
          "name": "_extraOptions",
          "type": "bytes"
        }
      ],
      "name": "quoteFee",
      "outputs": [
        {
          "components": [
            {
              "internalType": "uint256",
              "name": "nativeFee",
              "type": "uint256"
            },
            {
              "internalType": "uint256",
              "name": "lzTokenFee",
              "type": "uint256"
            }
          ],
          "internalType": "struct MessagingFee",
          "name": "fee",
          "type": "tuple"
        }
      ],
      "stateMutability": "view",
      "type": "function"
    },
    {
      "inputs": [],
      "name": "renounceOwnership",
      "outputs": [],
      "stateMutability": "nonpayable",
      "type": "function"
    },
    {
      "inputs": [
        {
          "internalType": "address",
          "name": "_delegate",
          "type": "address"
        }
      ],
      "name": "setDelegate",
      "outputs": [],
      "stateMutability": "nonpayable",
      "type": "function"
    },
    {
      "inputs": [
        {
          "internalType": "uint32",
          "name": "_eid",
          "type": "uint32"
        },
        {
          "internalType": "bytes32",
          "name": "_peer",
          "type": "bytes32"
        }
      ],
      "name": "setPeer",
      "outputs": [],
      "stateMutability": "nonpayable",
      "type": "function"
    },
    {
      "inputs": [],
      "name": "totalBridged",
      "outputs": [
        {
          "internalType": "uint256",
          "name": "",
          "type": "uint256"
        }
      ],
      "stateMutability": "view",
      "type": "function"
    },
    {
      "inputs": [],
      "name": "totalLocked",
      "outputs": [
        {
          "internalType": "uint256",
          "name": "",
          "type": "uint256"
        }
      ],
      "stateMutability": "view",
      "type": "function"
    },
    {
      "inputs": [
        {
          "internalType": "address",
          "name": "newOwner",
          "type": "address"
        }
      ],
      "name": "transferOwnership",
      "outputs": [],
      "stateMutability": "nonpayable",
      "type": "function"
    },
    {
      "inputs": [],
      "name": "usdt",
      "outputs": [
        {
          "internalType": "contract IERC20",
          "name": "",
          "type": "address"
        }
      ],
      "stateMutability": "view",
      "type": "function"
    }
  ],
  "bytecode": "0x60c06040523480156200001157600080fd5b5060405162002ebe38038062002ebe8339818101604052810190620000379190620002de565b828181816200005b6200004f620001a860201b60201c565b620001b060201b60201c565b8173ffffffffffffffffffffffffffffffffffffffff1660808173ffffffffffffffffffffffffffffffffffffffff1681525050600073ffffffffffffffffffffffffffffffffffffffff168173ffffffffffffffffffffffffffffffffffffffff1603620000f6576040517fb586360400000000000000000000000000000000000000000000000000000000815260040160405180910390fd5b60805173ffffffffffffffffffffffffffffffffffffffff1663ca5eb5e1826040518263ffffffff1660e01b81526004016200013391906200034b565b600060405180830381600087803b1580156200014e57600080fd5b505af115801562000163573d6000803e3d6000fd5b50505050505050508173ffffffffffffffffffffffffffffffffffffffff1660a08173ffffffffffffffffffffffffffffffffffffffff168152505050505062000368565b600033905090565b60008060009054906101000a900473ffffffffffffffffffffffffffffffffffffffff169050816000806101000a81548173ffffffffffffffffffffffffffffffffffffffff021916908373ffffffffffffffffffffffffffffffffffffffff1602179055508173ffffffffffffffffffffffffffffffffffffffff168173ffffffffffffffffffffffffffffffffffffffff167f8be0079c531659141344cd1fd0a4f28419497f9722a3daafe3b4186f6b6457e060405160405180910390a35050565b600080fd5b600073ffffffffffffffffffffffffffffffffffffffff82169050919050565b6000620002a68262000279565b9050919050565b620002b88162000299565b8114620002c457600080fd5b50565b600081519050620002d881620002ad565b92915050565b600080600060608486031215620002fa57620002f962000274565b5b60006200030a86828701620002c7565b93505060206200031d86828701620002c7565b92505060406200033086828701620002c7565b9150509250925092565b620003458162000299565b82525050565b60006020820190506200036260008301846200033a565b92915050565b60805160a051612aea620003d460003960008181610483015281816106530152818161083b01528181610c890152610d860152600081816105390152818161069301528181610a02015281816111570152818161124701528181611442015261153d0152612aea6000f3fe6080604052600436106101145760003560e01c80637d25a05e116100a0578063bb0b6a5311610064578063bb0b6a5314610376578063ca5eb5e1146103b3578063df4407aa146103dc578063f2fde38b14610419578063ff7bd03d1461044257610114565b80637d25a05e1461027857806382413eac146102b55780638da5cb5b146102f257806395ccea671461031d578063b0ffb11b1461034657610114565b80633400288b116100e75780633400288b146101b757806356891412146101e05780635e280f111461020b57806367a1791a14610236578063715018a61461026157610114565b806312065fe01461011957806313137d651461014457806317442b70146101605780632f48ab7d1461018c575b600080fd5b34801561012557600080fd5b5061012e61047f565b60405161013b91906117bc565b60405180910390f35b61015e60048036038101906101599190611908565b610520565b005b34801561016c57600080fd5b50610175610642565b6040516101839291906119e7565b60405180910390f35b34801561019857600080fd5b506101a1610651565b6040516101ae9190611a6f565b60405180910390f35b3480156101c357600080fd5b506101de60048036038101906101d99190611ac6565b610675565b005b3480156101ec57600080fd5b506101f561068b565b60405161020291906117bc565b60405180910390f35b34801561021757600080fd5b50610220610691565b60405161022d9190611b27565b60405180910390f35b34801561024257600080fd5b5061024b6106b5565b60405161025891906117bc565b60405180910390f35b34801561026d57600080fd5b506102766106bb565b005b34801561028457600080fd5b5061029f600480360381019061029a9190611ac6565b6106cf565b6040516102ac9190611b42565b60405180910390f35b3480156102c157600080fd5b506102dc60048036038101906102d79190611b5d565b6106d7565b6040516102e99190611bec565b60405180910390f35b3480156102fe57600080fd5b50610307610712565b6040516103149190611c16565b60405180910390f35b34801561032957600080fd5b50610344600480360381019061033f9190611c5d565b61073b565b005b610360600480360381019061035b9190611c9d565b610779565b60405161036d9190611dc3565b60405180910390f35b34801561038257600080fd5b5061039d60048036038101906103989190611dde565b6109e0565b6040516103aa9190611e1a565b60405180910390f35b3480156103bf57600080fd5b506103da60048036038101906103d59190611e35565b6109f8565b005b3480156103e857600080fd5b5061040360048036038101906103fe9190611e62565b610a8e565b6040516104109190611f05565b60405180910390f35b34801561042557600080fd5b50610440600480360381019061043b9190611e35565b610b36565b005b34801561044e57600080fd5b5061046960048036038101906104649190611f20565b610bb9565b6040516104769190611bec565b60405180910390f35b60007f000000000000000000000000000000000000000000000000000000000000000073ffffffffffffffffffffffffffffffffffffffff166370a08231306040518263ffffffff1660e01b81526004016104da9190611c16565b602060405180830381865afa1580156104f7573d6000803e3d6000fd5b505050506040513d601f19601f8201168201806040525081019061051b9190611f62565b905090565b3373ffffffffffffffffffffffffffffffffffffffff167f000000000000000000000000000000000000000000000000000000000000000073ffffffffffffffffffffffffffffffffffffffff16146105b057336040517f91ac5e4f0000000000000000000000000000000000000000000000000000000081526004016105a79190611c16565b60405180910390fd5b86602001356105d08860000160208101906105cb9190611dde565b610bfa565b1461062a578660000160208101906105e89190611dde565b87602001356040517fc26bebcc000000000000000000000000000000000000000000000000000000008152600401610621929190611f9e565b60405180910390fd5b61063987878787878787610c6f565b50505050505050565b60008060016002915091509091565b7f000000000000000000000000000000000000000000000000000000000000000081565b61067d610e3f565b6106878282610ebd565b5050565b60025481565b7f000000000000000000000000000000000000000000000000000000000000000081565b60035481565b6106c3610e3f565b6106cd6000610f1e565b565b600092915050565b60003073ffffffffffffffffffffffffffffffffffffffff168273ffffffffffffffffffffffffffffffffffffffff16149050949350505050565b60008060009054906101000a900473ffffffffffffffffffffffffffffffffffffffff16905090565b610743610e3f565b61077561074e610712565b828473ffffffffffffffffffffffffffffffffffffffff16610fe29092919063ffffffff16565b5050565b610781611755565b600084116107c4576040517f08c379a00000000000000000000000000000000000000000000000000000000081526004016107bb90612024565b60405180910390fd5b600073ffffffffffffffffffffffffffffffffffffffff168573ffffffffffffffffffffffffffffffffffffffff1603610833576040517f08c379a000000000000000000000000000000000000000000000000000000000815260040161082a90612090565b60405180910390fd5b6108803330867f000000000000000000000000000000000000000000000000000000000000000073ffffffffffffffffffffffffffffffffffffffff16611068909392919063ffffffff16565b836002600082825461089291906120df565b9250508190555083600360008282546108ab91906120df565b92505081905550600085856040516020016108c7929190612113565b604051602081830303815290604052905060008085859050116108f1576108ec6110f1565b610937565b84848080601f016020809104026020016040519081016040528093929190818152602001838380828437600081840152601f19601f820116905080830192505050505050505b9050600061095d8984846040518060400160405280348152602001600081525033611121565b90508773ffffffffffffffffffffffffffffffffffffffff168963ffffffff163373ffffffffffffffffffffffffffffffffffffffff167fa5c6d033ac99145f1cc051448eeca6f45c8cb5557aa3ee2234233de0f84b07978a85600001516040516109c992919061213c565b60405180910390a480935050505095945050505050565b60016020528060005260406000206000915090505481565b610a00610e3f565b7f000000000000000000000000000000000000000000000000000000000000000073ffffffffffffffffffffffffffffffffffffffff1663ca5eb5e1826040518263ffffffff1660e01b8152600401610a599190611c16565b600060405180830381600087803b158015610a7357600080fd5b505af1158015610a87573d6000803e3d6000fd5b5050505050565b610a96611789565b60003385604051602001610aab929190612113565b60405160208183030381529060405290506000808585905011610ad557610ad06110f1565b610b1b565b84848080601f016020809104026020016040519081016040528093929190818152602001838380828437600081840152601f19601f820116905080830192505050505050505b9050610b2a878383600061123d565b92505050949350505050565b610b3e610e3f565b600073ffffffffffffffffffffffffffffffffffffffff168173ffffffffffffffffffffffffffffffffffffffff1603610bad576040517f08c379a0000000000000000000000000000000000000000000000000000000008152600401610ba4906121d7565b60405180910390fd5b610bb681610f1e565b50565b6000816020013560016000846000016020810190610bd79190611dde565b63ffffffff1663ffffffff16815260200190815260200160002054149050919050565b600080600160008463ffffffff1663ffffffff1681526020019081526020016000205490506000801b8103610c6657826040517ff6ff4fb7000000000000000000000000000000000000000000000000000000008152600401610c5d91906121f7565b60405180910390fd5b80915050919050565b6000808686810190610c819190612250565b9150915060007f000000000000000000000000000000000000000000000000000000000000000073ffffffffffffffffffffffffffffffffffffffff166370a08231306040518263ffffffff1660e01b8152600401610ce09190611c16565b602060405180830381865afa158015610cfd573d6000803e3d6000fd5b505050506040513d601f19601f82011682018060405250810190610d219190611f62565b905081811015610d66576040517f08c379a0000000000000000000000000000000000000000000000000000000008152600401610d5d906122dc565b60405180910390fd5b8160026000828254610d7891906122fc565b92505081905550610dca83837f000000000000000000000000000000000000000000000000000000000000000073ffffffffffffffffffffffffffffffffffffffff16610fe29092919063ffffffff16565b896000016020810190610ddd9190611dde565b63ffffffff168373ffffffffffffffffffffffffffffffffffffffff167fe0a3a79c4dd6dfc904a83da7f8cce2da4000d87eeda6effd556cf5a47fd8d75e848c604051610e2b92919061213c565b60405180910390a350505050505050505050565b610e47611320565b73ffffffffffffffffffffffffffffffffffffffff16610e65610712565b73ffffffffffffffffffffffffffffffffffffffff1614610ebb576040517f08c379a0000000000000000000000000000000000000000000000000000000008152600401610eb29061237c565b60405180910390fd5b565b80600160008463ffffffff1663ffffffff168152602001908152602001600020819055507f238399d427b947898edb290f5ff0f9109849b1c3ba196a42e35f00c50a54b98b8282604051610f12929190611f9e565b60405180910390a15050565b60008060009054906101000a900473ffffffffffffffffffffffffffffffffffffffff169050816000806101000a81548173ffffffffffffffffffffffffffffffffffffffff021916908373ffffffffffffffffffffffffffffffffffffffff1602179055508173ffffffffffffffffffffffffffffffffffffffff168173ffffffffffffffffffffffffffffffffffffffff167f8be0079c531659141344cd1fd0a4f28419497f9722a3daafe3b4186f6b6457e060405160405180910390a35050565b6110638363a9059cbb60e01b8484604051602401611001929190612113565b604051602081830303815290604052907bffffffffffffffffffffffffffffffffffffffffffffffffffffffff19166020820180517bffffffffffffffffffffffffffffffffffffffffffffffffffffffff8381831617835250505050611328565b505050565b6110eb846323b872dd60e01b8585856040516024016110899392919061239c565b604051602081830303815290604052907bffffffffffffffffffffffffffffffffffffffffffffffffffffffff19166020820180517bffffffffffffffffffffffffffffffffffffffffffffffffffffffff8381831617835250505050611328565b50505050565b6060600362030d40600060405160200161110d93929190612469565b604051602081830303815290604052905090565b611129611755565b600061113884600001516113f0565b905060008460200151111561115557611154846020015161143e565b5b7f000000000000000000000000000000000000000000000000000000000000000073ffffffffffffffffffffffffffffffffffffffff16632637a450826040518060a001604052808b63ffffffff1681526020016111b28c610bfa565b81526020018a815260200189815260200160008960200151111515815250866040518463ffffffff1660e01b81526004016111ee9291906125d1565b60806040518083038185885af115801561120c573d6000803e3d6000fd5b50505050506040513d601f19601f820116820180604052508101906112319190612776565b91505095945050505050565b611245611789565b7f000000000000000000000000000000000000000000000000000000000000000073ffffffffffffffffffffffffffffffffffffffff1663ddc28c586040518060a001604052808863ffffffff1681526020016112a189610bfa565b8152602001878152602001868152602001851515815250306040518363ffffffff1660e01b81526004016112d69291906125d1565b6040805180830381865afa1580156112f2573d6000803e3d6000fd5b505050506040513d601f19601f8201168201806040525081019061131691906127a3565b9050949350505050565b600033905090565b600061138a826040518060400160405280602081526020017f5361666545524332303a206c6f772d6c6576656c2063616c6c206661696c65648152508573ffffffffffffffffffffffffffffffffffffffff166115889092919063ffffffff16565b90506000815114806113ac5750808060200190518101906113ab91906127fc565b5b6113eb576040517f08c379a00000000000000000000000000000000000000000000000000000000081526004016113e29061289b565b60405180910390fd5b505050565b600081341461143657346040517f9f70412000000000000000000000000000000000000000000000000000000000815260040161142d91906117bc565b60405180910390fd5b819050919050565b60007f000000000000000000000000000000000000000000000000000000000000000073ffffffffffffffffffffffffffffffffffffffff1663e4fe1d946040518163ffffffff1660e01b8152600401602060405180830381865afa1580156114ab573d6000803e3d6000fd5b505050506040513d601f19601f820116820180604052508101906114cf91906128d0565b9050600073ffffffffffffffffffffffffffffffffffffffff168173ffffffffffffffffffffffffffffffffffffffff1603611537576040517f5373352a00000000000000000000000000000000000000000000000000000000815260040160405180910390fd5b611584337f0000000000000000000000000000000000000000000000000000000000000000848473ffffffffffffffffffffffffffffffffffffffff16611068909392919063ffffffff16565b5050565b606061159784846000856115a0565b90509392505050565b6060824710156115e5576040517f08c379a00000000000000000000000000000000000000000000000000000000081526004016115dc9061296f565b60405180910390fd5b6000808673ffffffffffffffffffffffffffffffffffffffff16858760405161160e91906129cb565b60006040518083038185875af1925050503d806000811461164b576040519150601f19603f3d011682016040523d82523d6000602084013e611650565b606091505b50915091506116618783838761166d565b92505050949350505050565b606083156116cf5760008351036116c757611687856116e2565b6116c6576040517f08c379a00000000000000000000000000000000000000000000000000000000081526004016116bd90612a2e565b60405180910390fd5b5b8290506116da565b6116d98383611705565b5b949350505050565b6000808273ffffffffffffffffffffffffffffffffffffffff163b119050919050565b6000825111156117185781518083602001fd5b806040517f08c379a000000000000000000000000000000000000000000000000000000000815260040161174c9190612a92565b60405180910390fd5b604051806060016040528060008019168152602001600067ffffffffffffffff168152602001611783611789565b81525090565b604051806040016040528060008152602001600081525090565b6000819050919050565b6117b6816117a3565b82525050565b60006020820190506117d160008301846117ad565b92915050565b6000604051905090565b600080fd5b600080fd5b600080fd5b600060608284031215611806576118056117eb565b5b81905092915050565b6000819050919050565b6118228161180f565b811461182d57600080fd5b50565b60008135905061183f81611819565b92915050565b600080fd5b600080fd5b600080fd5b60008083601f84011261186a57611869611845565b5b8235905067ffffffffffffffff8111156118875761188661184a565b5b6020830191508360018202830111156118a3576118a261184f565b5b9250929050565b600073ffffffffffffffffffffffffffffffffffffffff82169050919050565b60006118d5826118aa565b9050919050565b6118e5816118ca565b81146118f057600080fd5b50565b600081359050611902816118dc565b92915050565b600080600080600080600060e0888a031215611927576119266117e1565b5b60006119358a828b016117f0565b97505060606119468a828b01611830565b965050608088013567ffffffffffffffff811115611967576119666117e6565b5b6119738a828b01611854565b955095505060a06119868a828b016118f3565b93505060c088013567ffffffffffffffff8111156119a7576119a66117e6565b5b6119b38a828b01611854565b925092505092959891949750929550565b600067ffffffffffffffff82169050919050565b6119e1816119c4565b82525050565b60006040820190506119fc60008301856119d8565b611a0960208301846119d8565b9392505050565b6000819050919050565b6000611a35611a30611a2b846118aa565b611a10565b6118aa565b9050919050565b6000611a4782611a1a565b9050919050565b6000611a5982611a3c565b9050919050565b611a6981611a4e565b82525050565b6000602082019050611a846000830184611a60565b92915050565b600063ffffffff82169050919050565b611aa381611a8a565b8114611aae57600080fd5b50565b600081359050611ac081611a9a565b92915050565b60008060408385031215611add57611adc6117e1565b5b6000611aeb85828601611ab1565b9250506020611afc85828601611830565b9150509250929050565b6000611b1182611a3c565b9050919050565b611b2181611b06565b82525050565b6000602082019050611b3c6000830184611b18565b92915050565b6000602082019050611b5760008301846119d8565b92915050565b60008060008060a08587031215611b7757611b766117e1565b5b6000611b85878288016117f0565b945050606085013567ffffffffffffffff811115611ba657611ba56117e6565b5b611bb287828801611854565b93509350506080611bc5878288016118f3565b91505092959194509250565b60008115159050919050565b611be681611bd1565b82525050565b6000602082019050611c016000830184611bdd565b92915050565b611c10816118ca565b82525050565b6000602082019050611c2b6000830184611c07565b92915050565b611c3a816117a3565b8114611c4557600080fd5b50565b600081359050611c5781611c31565b92915050565b60008060408385031215611c7457611c736117e1565b5b6000611c82858286016118f3565b9250506020611c9385828601611c48565b9150509250929050565b600080600080600060808688031215611cb957611cb86117e1565b5b6000611cc788828901611ab1565b9550506020611cd8888289016118f3565b9450506040611ce988828901611c48565b935050606086013567ffffffffffffffff811115611d0a57611d096117e6565b5b611d1688828901611854565b92509250509295509295909350565b611d2e8161180f565b82525050565b611d3d816119c4565b82525050565b611d4c816117a3565b82525050565b604082016000820151611d686000850182611d43565b506020820151611d7b6020850182611d43565b50505050565b608082016000820151611d976000850182611d25565b506020820151611daa6020850182611d34565b506040820151611dbd6040850182611d52565b50505050565b6000608082019050611dd86000830184611d81565b92915050565b600060208284031215611df457611df36117e1565b5b6000611e0284828501611ab1565b91505092915050565b611e148161180f565b82525050565b6000602082019050611e2f6000830184611e0b565b92915050565b600060208284031215611e4b57611e4a6117e1565b5b6000611e59848285016118f3565b91505092915050565b60008060008060608587031215611e7c57611e7b6117e1565b5b6000611e8a87828801611ab1565b9450506020611e9b87828801611c48565b935050604085013567ffffffffffffffff811115611ebc57611ebb6117e6565b5b611ec887828801611854565b925092505092959194509250565b604082016000820151611eec6000850182611d43565b506020820151611eff6020850182611d43565b50505050565b6000604082019050611f1a6000830184611ed6565b92915050565b600060608284031215611f3657611f356117e1565b5b6000611f44848285016117f0565b91505092915050565b600081519050611f5c81611c31565b92915050565b600060208284031215611f7857611f776117e1565b5b6000611f8684828501611f4d565b91505092915050565b611f9881611a8a565b82525050565b6000604082019050611fb36000830185611f8f565b611fc06020830184611e0b565b9392505050565b600082825260208201905092915050565b7f416d6f756e74206d757374206265203e20300000000000000000000000000000600082015250565b600061200e601283611fc7565b915061201982611fd8565b602082019050919050565b6000602082019050818103600083015261203d81612001565b9050919050565b7f496e76616c696420726563697069656e74000000000000000000000000000000600082015250565b600061207a601183611fc7565b915061208582612044565b602082019050919050565b600060208201905081810360008301526120a98161206d565b9050919050565b7f4e487b7100000000000000000000000000000000000000000000000000000000600052601160045260246000fd5b60006120ea826117a3565b91506120f5836117a3565b925082820190508082111561210d5761210c6120b0565b5b92915050565b60006040820190506121286000830185611c07565b61213560208301846117ad565b9392505050565b600060408201905061215160008301856117ad565b61215e6020830184611e0b565b9392505050565b7f4f776e61626c653a206e6577206f776e657220697320746865207a65726f206160008201527f6464726573730000000000000000000000000000000000000000000000000000602082015250565b60006121c1602683611fc7565b91506121cc82612165565b604082019050919050565b600060208201905081810360008301526121f0816121b4565b9050919050565b600060208201905061220c6000830184611f8f565b92915050565b600061221d826118aa565b9050919050565b61222d81612212565b811461223857600080fd5b50565b60008135905061224a81612224565b92915050565b60008060408385031215612267576122666117e1565b5b60006122758582860161223b565b925050602061228685828601611c48565b9150509250929050565b7f496e73756666696369656e74206c697175696469747900000000000000000000600082015250565b60006122c6601683611fc7565b91506122d182612290565b602082019050919050565b600060208201905081810360008301526122f5816122b9565b9050919050565b6000612307826117a3565b9150612312836117a3565b925082820390508181111561232a576123296120b0565b5b92915050565b7f4f776e61626c653a2063616c6c6572206973206e6f7420746865206f776e6572600082015250565b6000612366602083611fc7565b915061237182612330565b602082019050919050565b6000602082019050818103600083015261239581612359565b9050919050565b60006060820190506123b16000830186611c07565b6123be6020830185611c07565b6123cb60408301846117ad565b949350505050565b600061ffff82169050919050565b60008160f01b9050919050565b60006123f9826123e1565b9050919050565b61241161240c826123d3565b6123ee565b82525050565b60006fffffffffffffffffffffffffffffffff82169050919050565b60008160801b9050919050565b600061244b82612433565b9050919050565b61246361245e82612417565b612440565b82525050565b60006124758286612400565b6002820191506124858285612452565b6010820191506124958284612452565b601082019150819050949350505050565b6124af81611a8a565b82525050565b600081519050919050565b600082825260208201905092915050565b60005b838110156124ef5780820151818401526020810190506124d4565b60008484015250505050565b6000601f19601f8301169050919050565b6000612517826124b5565b61252181856124c0565b93506125318185602086016124d1565b61253a816124fb565b840191505092915050565b61254e81611bd1565b82525050565b600060a08301600083015161256c60008601826124a6565b50602083015161257f6020860182611d25565b5060408301518482036040860152612597828261250c565b915050606083015184820360608601526125b1828261250c565b91505060808301516125c66080860182612545565b508091505092915050565b600060408201905081810360008301526125eb8185612554565b90506125fa6020830184611c07565b9392505050565b600080fd5b7f4e487b7100000000000000000000000000000000000000000000000000000000600052604160045260246000fd5b61263e826124fb565b810181811067ffffffffffffffff8211171561265d5761265c612606565b5b80604052505050565b60006126706117d7565b905061267c8282612635565b919050565b60008151905061269081611819565b92915050565b61269f816119c4565b81146126aa57600080fd5b50565b6000815190506126bc81612696565b92915050565b6000604082840312156126d8576126d7612601565b5b6126e26040612666565b905060006126f284828501611f4d565b600083015250602061270684828501611f4d565b60208301525092915050565b60006080828403121561272857612727612601565b5b6127326060612666565b9050600061274284828501612681565b6000830152506020612756848285016126ad565b602083015250604061276a848285016126c2565b60408301525092915050565b60006080828403121561278c5761278b6117e1565b5b600061279a84828501612712565b91505092915050565b6000604082840312156127b9576127b86117e1565b5b60006127c7848285016126c2565b91505092915050565b6127d981611bd1565b81146127e457600080fd5b50565b6000815190506127f6816127d0565b92915050565b600060208284031215612812576128116117e1565b5b6000612820848285016127e7565b91505092915050565b7f5361666545524332303a204552433230206f7065726174696f6e20646964206e60008201527f6f74207375636365656400000000000000000000000000000000000000000000602082015250565b6000612885602a83611fc7565b915061289082612829565b604082019050919050565b600060208201905081810360008301526128b481612878565b9050919050565b6000815190506128ca816118dc565b92915050565b6000602082840312156128e6576128e56117e1565b5b60006128f4848285016128bb565b91505092915050565b7f416464726573733a20696e73756666696369656e742062616c616e636520666f60008201527f722063616c6c0000000000000000000000000000000000000000000000000000602082015250565b6000612959602683611fc7565b9150612964826128fd565b604082019050919050565b600060208201905081810360008301526129888161294c565b9050919050565b600081905092915050565b60006129a5826124b5565b6129af818561298f565b93506129bf8185602086016124d1565b80840191505092915050565b60006129d7828461299a565b915081905092915050565b7f416464726573733a2063616c6c20746f206e6f6e2d636f6e7472616374000000600082015250565b6000612a18601d83611fc7565b9150612a23826129e2565b602082019050919050565b60006020820190508181036000830152612a4781612a0b565b9050919050565b600081519050919050565b6000612a6482612a4e565b612a6e8185611fc7565b9350612a7e8185602086016124d1565b612a87816124fb565b840191505092915050565b60006020820190508181036000830152612aac8184612a59565b90509291505056fea26469706673582212204778c3598789c9bfc49674fd86edd19a2c671147662df086d037803fa61a59cd64736f6c63430008160033",
  "linkReferences": {},
  "deployedLinkReferences": {}
}